{
  "contractName": "Cryptofans",
  "abi": [
    {
      "inputs": [],
      "name": "registerasSubscriber",
      "outputs": [],
      "stateMutability": "nonpayable",
      "type": "function"
    },
    {
      "inputs": [],
      "name": "registerasProvider",
      "outputs": [],
      "stateMutability": "nonpayable",
      "type": "function"
    },
    {
      "inputs": [
        {
          "internalType": "bytes32",
          "name": "name",
          "type": "bytes32"
        },
        {
          "internalType": "uint256",
          "name": "cost",
          "type": "uint256"
        },
        {
          "internalType": "uint256",
          "name": "period",
          "type": "uint256"
        },
        {
          "internalType": "string",
          "name": "description",
          "type": "string"
        }
      ],
      "name": "createSubscription",
      "outputs": [],
      "stateMutability": "nonpayable",
      "type": "function"
    },
    {
      "inputs": [
        {
          "internalType": "uint256",
          "name": "amt",
          "type": "uint256"
        }
      ],
      "name": "pay",
      "outputs": [],
      "stateMutability": "payable",
      "type": "function",
      "payable": true
    },
    {
      "inputs": [
        {
          "internalType": "address",
          "name": "newholder",
          "type": "address"
        },
        {
          "internalType": "uint256",
          "name": "amount",
          "type": "uint256"
        }
      ],
      "name": "collect",
      "outputs": [],
      "stateMutability": "payable",
      "type": "function",
      "payable": true
    }
  ],
  "bytecode": "0x608060405234801561001057600080fd5b50610cdb806100206000396000f3fe60806040526004361061004a5760003560e01c80630daf96871461004f5780630ecea00d146100665780634d368a791461007d5780636b8357ac14610163578063c290d691146101b1575b600080fd5b34801561005b57600080fd5b506100646101df565b005b34801561007257600080fd5b5061007b610387565b005b34801561008957600080fd5b50610161600480360360808110156100a057600080fd5b81019080803590602001909291908035906020019092919080359060200190929190803590602001906401000000008111156100db57600080fd5b8201836020820111156100ed57600080fd5b8035906020019184600183028401116401000000008311171561010f57600080fd5b91908080601f016020809104026020016040519081016040528093929190818152602001838380828437600081840152601f19601f82011690508083019250505050505050919291929050505061052c565b005b6101af6004803603604081101561017957600080fd5b81019080803573ffffffffffffffffffffffffffffffffffffffff169060200190929190803590602001909291905050506109ab565b005b6101dd600480360360208110156101c757600080fd5b8101908080359060200190929190505050610acd565b005b60011515600260003373ffffffffffffffffffffffffffffffffffffffff1673ffffffffffffffffffffffffffffffffffffffff16815260200190815260200160002060000160149054906101000a900460ff16151514156102a9576040517f08c379a000000000000000000000000000000000000000000000000000000000815260040180806020018281038252601a8152602001807f596f752061726520616c7265616479207265676973746572656400000000000081525060200191505060405180910390fd5b6001600260003373ffffffffffffffffffffffffffffffffffffffff1673ffffffffffffffffffffffffffffffffffffffff16815260200190815260200160002060000160146101000a81548160ff02191690831515021790555033600260003373ffffffffffffffffffffffffffffffffffffffff1673ffffffffffffffffffffffffffffffffffffffff16815260200190815260200160002060000160006101000a81548173ffffffffffffffffffffffffffffffffffffffff021916908373ffffffffffffffffffffffffffffffffffffffff160217905550565b600115156000803373ffffffffffffffffffffffffffffffffffffffff1673ffffffffffffffffffffffffffffffffffffffff16815260200190815260200160002060000160149054906101000a900460ff1615151415610450576040517f08c379a000000000000000000000000000000000000000000000000000000000815260040180806020018281038252601a8152602001807f596f752061726520616c7265616479207265676973746572656400000000000081525060200191505060405180910390fd5b60016000803373ffffffffffffffffffffffffffffffffffffffff1673ffffffffffffffffffffffffffffffffffffffff16815260200190815260200160002060000160146101000a81548160ff021916908315150217905550336000803373ffffffffffffffffffffffffffffffffffffffff1673ffffffffffffffffffffffffffffffffffffffff16815260200190815260200160002060000160006101000a81548173ffffffffffffffffffffffffffffffffffffffff021916908373ffffffffffffffffffffffffffffffffffffffff160217905550565b60011515600260003373ffffffffffffffffffffffffffffffffffffffff1673ffffffffffffffffffffffffffffffffffffffff16815260200190815260200160002060000160149054906101000a900460ff1615151461058c57600080fd5b6000801b84148061059f57506000801b84145b15610612576040517f08c379a00000000000000000000000000000000000000000000000000000000081526004018080602001828103825260138152602001807f6e6f7420612076616c696420616464726573730000000000000000000000000081525060200191505060405180910390fd5b600115156001600086815260200190815260200160002060030160019054906101000a900460ff1615151415610693576040517f08c379a0000000000000000000000000000000000000000000000000000000008152600401808060200182810382526043815260200180610c366043913960600191505060405180910390fd5b622819a082141580156106aa57506301e133808214155b1561071d576040517f08c379a00000000000000000000000000000000000000000000000000000000081526004018080602001828103825260198152602001807f4d757374206265206d6f6e74686c79206f7220796561726c790000000000000081525060200191505060405180910390fd5b60008090506001600260003373ffffffffffffffffffffffffffffffffffffffff1673ffffffffffffffffffffffffffffffffffffffff16815260200190815260200160002060010154106107b257600260003373ffffffffffffffffffffffffffffffffffffffff1673ffffffffffffffffffffffffffffffffffffffff1681526020019081526020016000206001015490505b6001600260003373ffffffffffffffffffffffffffffffffffffffff1673ffffffffffffffffffffffffffffffffffffffff1681526020019081526020016000206001015401600260003373ffffffffffffffffffffffffffffffffffffffff1673ffffffffffffffffffffffffffffffffffffffff168152602001908152602001600020600101819055506040518061010001604052808681526020018581526020018481526020016001151581526020016001151581526020018381526020018281526020013373ffffffffffffffffffffffffffffffffffffffff168152506001600087815260200190815260200160002060008201518160000155602082015181600101556040820151816002015560608201518160030160006101000a81548160ff02191690831515021790555060808201518160030160016101000a81548160ff02191690831515021790555060a0820151816004019080519060200190610921929190610b90565b5060c0820151816005015560e08201518160060160006101000a81548173ffffffffffffffffffffffffffffffffffffffff021916908373ffffffffffffffffffffffffffffffffffffffff160217905550905050600180600087815260200190815260200160002060030160006101000a81548160ff0219169083151502179055505050505050565b60011515600260003373ffffffffffffffffffffffffffffffffffffffff1673ffffffffffffffffffffffffffffffffffffffff16815260200190815260200160002060000160149054906101000a900460ff16151514610a0b57600080fd5b60013373ffffffffffffffffffffffffffffffffffffffff16311015610a7c576040517f08c379a000000000000000000000000000000000000000000000000000000000815260040180806020018281038252602d815260200180610c79602d913960400191505060405180910390fd5b60008290508073ffffffffffffffffffffffffffffffffffffffff166108fc839081150290604051600060405180830381858888f19350505050158015610ac7573d6000803e3d6000fd5b50505050565b600115156000803373ffffffffffffffffffffffffffffffffffffffff1673ffffffffffffffffffffffffffffffffffffffff16815260200190815260200160002060000160149054906101000a900460ff16151514610b2c57600080fd5b600073475b728384fbb55f4231ccafc9c8c2f7cf228e5290508073ffffffffffffffffffffffffffffffffffffffff166108fc839081150290604051600060405180830381858888f19350505050158015610b8b573d6000803e3d6000fd5b505050565b828054600181600116156101000203166002900490600052602060002090601f016020900481019282601f10610bd157805160ff1916838001178555610bff565b82800160010185558215610bff579182015b82811115610bfe578251825591602001919060010190610be3565b5b509050610c0c9190610c10565b5090565b610c3291905b80821115610c2e576000816000905550600101610c16565b5090565b9056fe4120737562736372697074696f6e20706c616e20776974682074686973206e616d6520616c7265616479206578697374732c2075736520616e6f74686572206e616d65596f75722062616c616e6365206973206e6f74206c6172676520656e6f75676820746f207472616e736665722ea2646970667358221220f3b2bb0335253a1fedeede33b60a08b4ceee31fda72b9ee15acf4d9506fb8b9864736f6c63430006000033",
  "source": "// SPDX-License-Identifier: hasanhenry426\r\n\r\npragma solidity >=0.6.0 <0.9.0;\r\n\r\ncontract Cryptofans{\r\n\r\n\r\n    uint constant MONTH= 2628000;\r\n    uint constant YEAR_IN_SECONDS = 31536000;\r\n    \r\n\r\n    struct Subscriber {\r\n        address addy;// sub address\r\n        bool registered;\r\n        uint256 start;\r\n    }\r\n\r\n    mapping(address => Subscriber) subscribers;//subscriber's address to each individual Sub struct\r\n    mapping(bytes32=>Proposal) proposals;//All existing proposals= key:name val:proposal struct  \r\n    mapping(address => Provider) providers;//providers' addresses to an individual provider struct  \r\n    mapping(address=>mapping(uint=>address[])) sub_ids;//provider's address to key to list of subscribers\r\n    mapping(address=>mapping(bytes32=>subPlan)) info_by_prop;//Subs' address mapped to a proposal name mapped to a subscribers' plan \r\n    struct Provider{\r\n        address add;\r\n        bool registered; \r\n        uint numproposal;\r\n    }\r\n\r\n    struct subPlan{\r\n        bool in_use;\r\n        uint256 next_payday;\r\n        uint256 start_payday;\r\n    }\r\n    \r\n    struct Proposal { \r\n        bytes32 name;   //(?) short name (up to 32 bytes) X \r\n        uint cost;\r\n        uint256 period;// (   billed cycle in days )\r\n        bool active; // active or not\r\n        bool name_taken;\r\n        string description;\r\n        uint key;//-> act like a hash \r\n        address creator; \r\n    }\r\n    //0xC5Bdf71E29E4E4e3dEA87568CBd8503A2418f958\r\n    function registerasSubscriber () public {\r\n        // if statement to check if they already registered\r\n        // nested mapping goes here??\r\n        if (subscribers[msg.sender].registered == true){\r\n\r\n            revert(\"You are already registered\");\r\n\r\n            // change revert function to whatever necessary if it doesnt work\r\n        }\r\n        else{\r\n            subscribers[msg.sender].registered = true;\r\n            subscribers[msg.sender].addy = msg.sender;\r\n        }\r\n\r\n    }\r\n    \r\n    function registerasProvider () public {\r\n        // if statement to check if ti exists\r\n        if (providers[msg.sender].registered == true){\r\n\r\n            revert(\"You are already registered\");\r\n\r\n            // change revert function to whatever necessary if it doesnt work\r\n        }else {\r\n            providers[msg.sender].registered = true;\r\n            providers[msg.sender].add = msg.sender;\r\n        }\r\n\r\n\r\n\r\n    }\r\n\r\n    modifier onlyProvider(){ //modifier provider\r\n        require(providers[msg.sender].registered == true) ;\r\n        _;\r\n    }\r\n\r\n    // Modifier subascriber\r\n    modifier onlySubscriber(){\r\n        require(subscribers[msg.sender].registered == true) ;\r\n        _;\r\n    }\r\n    \r\n    function createSubscription(bytes32 name, uint cost, uint period, string memory description) onlyProvider public {\r\n        //  if statement to check that proposal by this mname does not exist\r\n        if(name==0x0000000000000000000000000000000000000000000000000000000000000000 || name==0x0){\r\n            revert(\"not a valid address\");\r\n        }\r\n        if (proposals[name].name_taken == true){\r\n            \r\n            revert(\"A subscription plan with this name already exists, use another name\");\r\n        }\r\n        if ((period != MONTH && period != YEAR_IN_SECONDS) ){\r\n         \r\n            revert(\"Must be monthly or yearly\");\r\n        }\r\n        uint key_num = 0; // index 0 proposal 1\r\n        if (providers[msg.sender].numproposal >= 1){ // if greater than 1 proposal\r\n\r\n            key_num = providers[msg.sender].numproposal; // index of latest proposal\r\n        }\r\n        providers[msg.sender].numproposal = providers[msg.sender].numproposal + 1; // proposal count begins at 1\r\n        proposals[name] = Proposal(name, cost, period, true, true, description, key_num, msg.sender); // registers proposal\r\n        proposals[name].active = true ; // turns on activity \r\n    }\r\n\r\n    //warn subscribers they are about to purchase subscription(proposal)\r\n    //function pay(bytes32 prop_h, uint256 amt) public payable onlySubscriber{\r\n    function pay(uint256 amt) public payable onlySubscriber{\r\n        address payable payable_creator=payable(0x475b728384fbb55f4231ccAfc9c8C2f7CF228e52);\r\n        payable_creator.transfer(amt);\r\n        /**if(block.timestamp < info_by_prop[msg.sender][prop_h].next_payday){\r\n            revert(\"Payment up to date.\");\r\n        }else{ \r\n            address payable payable_creator=payable(proposals[prop_h].creator);\r\n            payable_creator.transfer(amt);\r\n            //payable_creator.transfer(proposals[prop_h].cost);\r\n            info_by_prop[msg.sender][prop_h].next_payday= info_by_prop[msg.sender][prop_h].next_payday+ proposals[prop_h].period;\r\n        }*/\r\n    }\r\n    \r\n    function collect(address newholder, uint256 amount) public payable onlyProvider{\r\n       if(msg.sender.balance<1){\r\n            revert(\"Your balance is not large enough to transfer.\");\r\n       }else{\r\n        address payable newowner = payable(newholder);\r\n        (newowner).transfer(amount);\r\n       }\r\n    }\r\n    /*\r\n    function sub_to_plan(bytes32 prop_h) public payable onlySubscriber{\r\n        if(proposals[prop_h].name_taken == false){\r\n            revert(\"there is no subscription of this name\");\r\n        }\r\n        if(proposals[prop_h].active == false){\r\n            revert(\"this subscription is not active\");\r\n        }\r\n        if(info_by_prop[msg.sender][prop_h].in_use == true){\r\n            revert(\"you are already subscribed.\");\r\n        }\r\n        info_by_prop[msg.sender][prop_h]=subPlan(true, block.timestamp, block.timestamp);\r\n        info_by_prop[msg.sender][prop_h].next_payday = block.timestamp;\r\n        info_by_prop[msg.sender][prop_h].in_use = true;\r\n        pay(prop_h);\r\n        sub_ids[proposals[prop_h].creator][proposals[prop_h].key].push(subscribers[msg.sender].addy);\r\n    }\r\n   \r\n    // address 1 = bytes32\"netflix\" with key 0, \"youtube\" w key 1\r\n    // address 2 = bytes32\"netflix\" with key 0, \"hulu\" w key 1  \r\n\r\n    function unsub_to_plan(bytes32 prop_h) public onlySubscriber{\r\n        if(info_by_prop[msg.sender][prop_h].in_use == false){\r\n            revert();\r\n        }else if(sub_ids[proposals[prop_h].creator][proposals[prop_h].key].length==1){\r\n            info_by_prop[msg.sender][prop_h].in_use = false;\r\n            sub_ids[proposals[prop_h].creator][proposals[prop_h].key].pop();\r\n        }else if(sub_ids[proposals[prop_h].creator][proposals[prop_h].key][sub_ids[proposals[prop_h].creator][proposals[prop_h].key].length-1]==msg.sender){\r\n                info_by_prop[msg.sender][prop_h].in_use = false;\r\n                sub_ids[proposals[prop_h].creator][proposals[prop_h].key].pop();\r\n        }else {\r\n        uint index; \r\n        for(uint i=0;i<sub_ids[proposals[prop_h].creator][proposals[prop_h].key].length;i++){\r\n            if(sub_ids[proposals[prop_h].creator][proposals[prop_h].key][i]==msg.sender){\r\n                index=i;\r\n                break;\r\n            }\r\n        }\r\n        for (uint j = index; j<sub_ids[proposals[prop_h].creator][proposals[prop_h].key].length-1; j++){\r\n            sub_ids[proposals[prop_h].creator][proposals[prop_h].key][j] = sub_ids[proposals[prop_h].creator][proposals[prop_h].key][j+1];\r\n        }\r\n        info_by_prop[msg.sender][prop_h].in_use = false;\r\n        sub_ids[proposals[prop_h].creator][proposals[prop_h].key].pop();\r\n        }\r\n    }\r\n\r\n    function findSubscription (bytes32 searchName) public view returns (bytes32,uint, uint,string memory) {\r\n        if (proposals[searchName].active == true){\r\n            return (proposals[searchName].name,proposals[searchName].cost,proposals[searchName].period, proposals[searchName].description) ;\r\n        }\r\n        else{\r\n            revert(\"Subscription by that name does not exist\") ; \r\n        }\r\n    }\r\n\r\n    function on_off_switch(bytes32 prop_h) public onlyProvider{\r\n        if(msg.sender!=proposals[prop_h].creator){\r\n            revert();\r\n        }else if(msg.sender==proposals[prop_h].creator){\r\n            proposals[prop_h].active=!proposals[prop_h].active;\r\n        }\r\n    }\r\n\r\n    function view_subs(bytes32 prop_h) onlyProvider public view returns (address[] memory) {\r\n        if(msg.sender!=proposals[prop_h].creator){\r\n            revert(\"You do not own this subscription.\");\r\n        }\r\n        return sub_ids[proposals[prop_h].creator][proposals[prop_h].key];\r\n        \r\n    }\r\n\r\n    function accessSubscscription(bytes32 prop_h) public payable onlySubscriber returns(bool){\r\n        if(info_by_prop[msg.sender][prop_h].in_use == false){\r\n            return false;\r\n        }\r\n        if (block.timestamp < info_by_prop[msg.sender][prop_h].next_payday){\r\n            return true;\r\n        }\r\n        if(block.timestamp >= info_by_prop[msg.sender][prop_h].next_payday){\r\n            while(block.timestamp > info_by_prop[msg.sender][prop_h].next_payday){\r\n                pay(prop_h);\r\n            }\r\n            return true;\r\n        }\r\n        else{\r\n            return false;\r\n        }\r\n        \r\n    }\r\n    */\r\n}",
  "sourcePath": "C:\\Users\\hchou\\Desktop\\V4Cryptofans-Dapp\\Cryptofans-Dapp-V4\\Cryptofans-Dapp\\cryptofans-contract\\contracts\\Cryptofans.sol",
  "compiler": {
    "name": "solc",
    "version": "0.6.0+commit.26b70077.Emscripten.clang"
  },
  "schemaVersion": "3.0.23",
  "updatedAt": "2022-05-05T22:26:41.543Z",
  "networkType": "ethereum",
  "devdoc": {
    "methods": {}
  },
  "userdoc": {
    "methods": {}
  }
}