{
  "contractName": "Cryptofans",
  "abi": [
    {
      "anonymous": false,
      "inputs": [
        {
          "indexed": true,
          "internalType": "address",
          "name": "owner",
          "type": "address"
        },
        {
          "indexed": true,
          "internalType": "address",
          "name": "spender",
          "type": "address"
        },
        {
          "indexed": false,
          "internalType": "uint256",
          "name": "value",
          "type": "uint256"
        }
      ],
      "name": "Approval",
      "type": "event"
    },
    {
      "anonymous": false,
      "inputs": [
        {
          "indexed": true,
          "internalType": "address",
          "name": "from",
          "type": "address"
        },
        {
          "indexed": true,
          "internalType": "address",
          "name": "to",
          "type": "address"
        },
        {
          "indexed": false,
          "internalType": "uint256",
          "name": "value",
          "type": "uint256"
        }
      ],
      "name": "Transfer",
      "type": "event"
    },
    {
      "inputs": [
        {
          "internalType": "address",
          "name": "owner",
          "type": "address"
        },
        {
          "internalType": "address",
          "name": "delegate",
          "type": "address"
        }
      ],
      "name": "allowance",
      "outputs": [
        {
          "internalType": "uint256",
          "name": "",
          "type": "uint256"
        }
      ],
      "stateMutability": "view",
      "type": "function"
    },
    {
      "inputs": [
        {
          "internalType": "address",
          "name": "delegate",
          "type": "address"
        },
        {
          "internalType": "uint256",
          "name": "numTokens",
          "type": "uint256"
        }
      ],
      "name": "approve",
      "outputs": [
        {
          "internalType": "bool",
          "name": "",
          "type": "bool"
        }
      ],
      "stateMutability": "nonpayable",
      "type": "function"
    },
    {
      "inputs": [
        {
          "internalType": "address",
          "name": "tokenOwner",
          "type": "address"
        }
      ],
      "name": "balanceOf",
      "outputs": [
        {
          "internalType": "uint256",
          "name": "",
          "type": "uint256"
        }
      ],
      "stateMutability": "view",
      "type": "function"
    },
    {
      "inputs": [],
      "name": "decimals",
      "outputs": [
        {
          "internalType": "uint8",
          "name": "",
          "type": "uint8"
        }
      ],
      "stateMutability": "view",
      "type": "function"
    },
    {
      "inputs": [],
      "name": "name",
      "outputs": [
        {
          "internalType": "string",
          "name": "",
          "type": "string"
        }
      ],
      "stateMutability": "view",
      "type": "function"
    },
    {
      "inputs": [],
      "name": "symbol",
      "outputs": [
        {
          "internalType": "string",
          "name": "",
          "type": "string"
        }
      ],
      "stateMutability": "view",
      "type": "function"
    },
    {
      "inputs": [],
      "name": "totalSupply",
      "outputs": [
        {
          "internalType": "uint256",
          "name": "",
          "type": "uint256"
        }
      ],
      "stateMutability": "view",
      "type": "function"
    },
    {
      "inputs": [
        {
          "internalType": "address",
          "name": "receiver",
          "type": "address"
        },
        {
          "internalType": "uint256",
          "name": "numTokens",
          "type": "uint256"
        }
      ],
      "name": "transfer",
      "outputs": [
        {
          "internalType": "bool",
          "name": "",
          "type": "bool"
        }
      ],
      "stateMutability": "nonpayable",
      "type": "function"
    },
    {
      "inputs": [
        {
          "internalType": "address",
          "name": "owner",
          "type": "address"
        },
        {
          "internalType": "address",
          "name": "buyer",
          "type": "address"
        },
        {
          "internalType": "uint256",
          "name": "numTokens",
          "type": "uint256"
        }
      ],
      "name": "transferFrom",
      "outputs": [
        {
          "internalType": "bool",
          "name": "",
          "type": "bool"
        }
      ],
      "stateMutability": "nonpayable",
      "type": "function"
    },
    {
      "inputs": [],
      "name": "user",
      "outputs": [
        {
          "internalType": "address",
          "name": "",
          "type": "address"
        }
      ],
      "stateMutability": "view",
      "type": "function"
    },
    {
      "inputs": [],
      "name": "registerasSubscriber",
      "outputs": [],
      "stateMutability": "nonpayable",
      "type": "function"
    },
    {
      "inputs": [],
      "name": "registerasProvider",
      "outputs": [],
      "stateMutability": "nonpayable",
      "type": "function"
    },
    {
      "inputs": [
        {
          "internalType": "bytes32",
          "name": "name",
          "type": "bytes32"
        },
        {
          "internalType": "uint256",
          "name": "cost",
          "type": "uint256"
        },
        {
          "internalType": "uint256",
          "name": "period",
          "type": "uint256"
        },
        {
          "internalType": "string",
          "name": "description",
          "type": "string"
        }
      ],
      "name": "createSubscription",
      "outputs": [],
      "stateMutability": "nonpayable",
      "type": "function"
    },
    {
      "inputs": [
        {
          "internalType": "bytes32",
          "name": "prop_h",
          "type": "bytes32"
        }
      ],
      "name": "pay",
      "outputs": [],
      "stateMutability": "payable",
      "type": "function"
    },
    {
      "inputs": [
        {
          "internalType": "address",
          "name": "newholder",
          "type": "address"
        },
        {
          "internalType": "uint256",
          "name": "amount",
          "type": "uint256"
        }
      ],
      "name": "collect",
      "outputs": [],
      "stateMutability": "payable",
      "type": "function"
    },
    {
      "inputs": [
        {
          "internalType": "bytes32",
          "name": "prop_h",
          "type": "bytes32"
        }
      ],
      "name": "sub_to_plan",
      "outputs": [],
      "stateMutability": "payable",
      "type": "function"
    },
    {
      "inputs": [
        {
          "internalType": "bytes32",
          "name": "prop_h",
          "type": "bytes32"
        }
      ],
      "name": "unsub_to_plan",
      "outputs": [],
      "stateMutability": "nonpayable",
      "type": "function"
    },
    {
      "inputs": [
        {
          "internalType": "bytes32",
          "name": "searchName",
          "type": "bytes32"
        }
      ],
      "name": "findSubscription",
      "outputs": [
        {
          "internalType": "bytes32",
          "name": "",
          "type": "bytes32"
        },
        {
          "internalType": "uint256",
          "name": "",
          "type": "uint256"
        },
        {
          "internalType": "uint256",
          "name": "",
          "type": "uint256"
        },
        {
          "internalType": "string",
          "name": "",
          "type": "string"
        }
      ],
      "stateMutability": "view",
      "type": "function"
    },
    {
      "inputs": [
        {
          "internalType": "bytes32",
          "name": "prop_h",
          "type": "bytes32"
        }
      ],
      "name": "on_off_switch",
      "outputs": [],
      "stateMutability": "nonpayable",
      "type": "function"
    },
    {
      "inputs": [
        {
          "internalType": "bytes32",
          "name": "prop_h",
          "type": "bytes32"
        }
      ],
      "name": "view_subs",
      "outputs": [
        {
          "internalType": "address[]",
          "name": "",
          "type": "address[]"
        }
      ],
      "stateMutability": "view",
      "type": "function"
    },
    {
      "inputs": [
        {
          "internalType": "bytes32",
          "name": "prop_h",
          "type": "bytes32"
        }
      ],
      "name": "accessSubscscription",
      "outputs": [
        {
          "internalType": "bool",
          "name": "",
          "type": "bool"
        }
      ],
      "stateMutability": "payable",
      "type": "function"
    }
  ],
  "bytecode": "0x6080604052678ac7230489e800006002556002546000803373ffffffffffffffffffffffffffffffffffffffff1673ffffffffffffffffffffffffffffffffffffffff168152602001908152602001600020819055506135d5806100646000396000f3fe60806040526004361061012a5760003560e01c80634d368a79116100ab5780638609cad11161006f5780638609cad11461071957806395d89b4114610747578063a9059cbb146107d7578063b8fbf8591461084a578063c200312314610878578063dd62ed3e146108b35761012a565b80634d368a79146104e35780634f8632ba146105c95780636b8357ac1461062057806370a082311461066e578063717baab7146106d35761012a565b806318160ddd116100f257806318160ddd1461032957806323b872dd1461035457806327e69c45146103e7578063313ce56714610477578063327e2e4c146104a85761012a565b806306fdde031461012f578063095ea7b3146101bf5780630daf9687146102325780630ecea00d146102495780631708991814610260575b600080fd5b34801561013b57600080fd5b50610144610938565b6040518080602001828103825283818151815260200191508051906020019080838360005b83811015610184578082015181840152602081019050610169565b50505050905090810190601f1680156101b15780820380516001836020036101000a031916815260200191505b509250505060405180910390f35b3480156101cb57600080fd5b50610218600480360360408110156101e257600080fd5b81019080803573ffffffffffffffffffffffffffffffffffffffff16906020019092919080359060200190929190505050610971565b604051808215151515815260200191505060405180910390f35b34801561023e57600080fd5b50610247610a63565b005b34801561025557600080fd5b5061025e610c0b565b005b34801561026c57600080fd5b506102996004803603602081101561028357600080fd5b8101908080359060200190929190505050610db3565b6040518085815260200184815260200183815260200180602001828103825283818151815260200191508051906020019080838360005b838110156102eb5780820151818401526020810190506102d0565b50505050905090810190601f1680156103185780820380516001836020036101000a031916815260200191505b509550505050505060405180910390f35b34801561033557600080fd5b5061033e610f46565b6040518082815260200191505060405180910390f35b34801561036057600080fd5b506103cd6004803603606081101561037757600080fd5b81019080803573ffffffffffffffffffffffffffffffffffffffff169060200190929190803573ffffffffffffffffffffffffffffffffffffffff16906020019092919080359060200190929190505050610f50565b604051808215151515815260200191505060405180910390f35b3480156103f357600080fd5b506104206004803603602081101561040a57600080fd5b810190808035906020019092919050505061129b565b6040518080602001828103825283818151815260200191508051906020019060200280838360005b83811015610463578082015181840152602081019050610448565b505050509050019250505060405180910390f35b34801561048357600080fd5b5061048c6114df565b604051808260ff1660ff16815260200191505060405180910390f35b3480156104b457600080fd5b506104e1600480360360208110156104cb57600080fd5b81019080803590602001909291905050506114e4565b005b3480156104ef57600080fd5b506105c76004803603608081101561050657600080fd5b810190808035906020019092919080359060200190929190803590602001909291908035906020019064010000000081111561054157600080fd5b82018360208201111561055357600080fd5b8035906020019184600183028401116401000000008311171561057557600080fd5b91908080601f016020809104026020016040519081016040528093929190818152602001838380828437600081840152601f19601f820116905080830192505050505050509192919290505050611672565b005b3480156105d557600080fd5b506105de611af2565b604051808273ffffffffffffffffffffffffffffffffffffffff1673ffffffffffffffffffffffffffffffffffffffff16815260200191505060405180910390f35b61066c6004803603604081101561063657600080fd5b81019080803573ffffffffffffffffffffffffffffffffffffffff16906020019092919080359060200190929190505050611b18565b005b34801561067a57600080fd5b506106bd6004803603602081101561069157600080fd5b81019080803573ffffffffffffffffffffffffffffffffffffffff169060200190929190505050611c3a565b6040518082815260200191505060405180910390f35b6106ff600480360360208110156106e957600080fd5b8101908080359060200190929190505050611c82565b604051808215151515815260200191505060405180910390f35b6107456004803603602081101561072f57600080fd5b8101908080359060200190929190505050611e95565b005b34801561075357600080fd5b5061075c61211d565b6040518080602001828103825283818151815260200191508051906020019080838360005b8381101561079c578082015181840152602081019050610781565b50505050905090810190601f1680156107c95780820380516001836020036101000a031916815260200191505b509250505060405180910390f35b3480156107e357600080fd5b50610830600480360360408110156107fa57600080fd5b81019080803573ffffffffffffffffffffffffffffffffffffffff16906020019092919080359060200190929190505050612156565b604051808215151515815260200191505060405180910390f35b6108766004803603602081101561086057600080fd5b8101908080359060200190929190505050612318565b005b34801561088457600080fd5b506108b16004803603602081101561089b57600080fd5b8101908080359060200190929190505050612846565b005b3480156108bf57600080fd5b50610922600480360360408110156108d657600080fd5b81019080803573ffffffffffffffffffffffffffffffffffffffff169060200190929190803573ffffffffffffffffffffffffffffffffffffffff169060200190929190505050613395565b6040518082815260200191505060405180910390f35b6040518060400160405280600781526020017f537562436f696e0000000000000000000000000000000000000000000000000081525081565b600081600160003373ffffffffffffffffffffffffffffffffffffffff1673ffffffffffffffffffffffffffffffffffffffff16815260200190815260200160002060008573ffffffffffffffffffffffffffffffffffffffff1673ffffffffffffffffffffffffffffffffffffffff168152602001908152602001600020819055508273ffffffffffffffffffffffffffffffffffffffff163373ffffffffffffffffffffffffffffffffffffffff167f8c5be1e5ebec7d5bd14f71427d1e84f3dd0314c0f7b2291e5b200ac8c7c3b925846040518082815260200191505060405180910390a36001905092915050565b60011515600560003373ffffffffffffffffffffffffffffffffffffffff1673ffffffffffffffffffffffffffffffffffffffff16815260200190815260200160002060000160149054906101000a900460ff1615151415610b2d576040517f08c379a000000000000000000000000000000000000000000000000000000000815260040180806020018281038252601a8152602001807f596f752061726520616c7265616479207265676973746572656400000000000081525060200191505060405180910390fd5b6001600560003373ffffffffffffffffffffffffffffffffffffffff1673ffffffffffffffffffffffffffffffffffffffff16815260200190815260200160002060000160146101000a81548160ff02191690831515021790555033600560003373ffffffffffffffffffffffffffffffffffffffff1673ffffffffffffffffffffffffffffffffffffffff16815260200190815260200160002060000160006101000a81548173ffffffffffffffffffffffffffffffffffffffff021916908373ffffffffffffffffffffffffffffffffffffffff160217905550565b60011515600360003373ffffffffffffffffffffffffffffffffffffffff1673ffffffffffffffffffffffffffffffffffffffff16815260200190815260200160002060000160149054906101000a900460ff1615151415610cd5576040517f08c379a000000000000000000000000000000000000000000000000000000000815260040180806020018281038252601a8152602001807f596f752061726520616c7265616479207265676973746572656400000000000081525060200191505060405180910390fd5b6001600360003373ffffffffffffffffffffffffffffffffffffffff1673ffffffffffffffffffffffffffffffffffffffff16815260200190815260200160002060000160146101000a81548160ff02191690831515021790555033600360003373ffffffffffffffffffffffffffffffffffffffff1673ffffffffffffffffffffffffffffffffffffffff16815260200190815260200160002060000160006101000a81548173ffffffffffffffffffffffffffffffffffffffff021916908373ffffffffffffffffffffffffffffffffffffffff160217905550565b60008060006060600115156004600087815260200190815260200160002060030160009054906101000a900460ff1615151415610eee5760046000868152602001908152602001600020600001546004600087815260200190815260200160002060010154600460008881526020019081526020016000206002015460046000898152602001908152602001600020600401808054600181600116156101000203166002900480601f016020809104026020016040519081016040528092919081815260200182805460018160011615610100020316600290048015610eda5780601f10610eaf57610100808354040283529160200191610eda565b820191906000526020600020905b815481529060010190602001808311610ebd57829003601f168201915b505050505090509350935093509350610f3f565b6040517f08c379a00000000000000000000000000000000000000000000000000000000081526004018080602001828103825260288152602001806135786028913960400191505060405180910390fd5b9193509193565b6000600254905090565b60008060008573ffffffffffffffffffffffffffffffffffffffff1673ffffffffffffffffffffffffffffffffffffffff16815260200190815260200160002054821115610f9d57600080fd5b600160008573ffffffffffffffffffffffffffffffffffffffff1673ffffffffffffffffffffffffffffffffffffffff16815260200190815260200160002060003373ffffffffffffffffffffffffffffffffffffffff1673ffffffffffffffffffffffffffffffffffffffff1681526020019081526020016000205482111561102657600080fd5b816000808673ffffffffffffffffffffffffffffffffffffffff1673ffffffffffffffffffffffffffffffffffffffff16815260200190815260200160002054036000808673ffffffffffffffffffffffffffffffffffffffff1673ffffffffffffffffffffffffffffffffffffffff1681526020019081526020016000208190555081600160008673ffffffffffffffffffffffffffffffffffffffff1673ffffffffffffffffffffffffffffffffffffffff16815260200190815260200160002060003373ffffffffffffffffffffffffffffffffffffffff1673ffffffffffffffffffffffffffffffffffffffff1681526020019081526020016000205403600160008673ffffffffffffffffffffffffffffffffffffffff1673ffffffffffffffffffffffffffffffffffffffff16815260200190815260200160002060003373ffffffffffffffffffffffffffffffffffffffff1673ffffffffffffffffffffffffffffffffffffffff16815260200190815260200160002081905550816000808573ffffffffffffffffffffffffffffffffffffffff1673ffffffffffffffffffffffffffffffffffffffff16815260200190815260200160002054016000808573ffffffffffffffffffffffffffffffffffffffff1673ffffffffffffffffffffffffffffffffffffffff168152602001908152602001600020819055508273ffffffffffffffffffffffffffffffffffffffff168473ffffffffffffffffffffffffffffffffffffffff167fddf252ad1be2c89b69c2b068fc378daa952ba7f163c4a11628f55a4df523b3ef846040518082815260200191505060405180910390a3600190509392505050565b606060011515600560003373ffffffffffffffffffffffffffffffffffffffff1673ffffffffffffffffffffffffffffffffffffffff16815260200190815260200160002060000160149054906101000a900460ff161515146112fd57600080fd5b6004600083815260200190815260200160002060060160009054906101000a900473ffffffffffffffffffffffffffffffffffffffff1673ffffffffffffffffffffffffffffffffffffffff163373ffffffffffffffffffffffffffffffffffffffff16146113b7576040517f08c379a00000000000000000000000000000000000000000000000000000000081526004018080602001828103825260218152602001806135576021913960400191505060405180910390fd5b600660006004600085815260200190815260200160002060060160009054906101000a900473ffffffffffffffffffffffffffffffffffffffff1673ffffffffffffffffffffffffffffffffffffffff1673ffffffffffffffffffffffffffffffffffffffff1681526020019081526020016000206000600460008581526020019081526020016000206005015481526020019081526020016000208054806020026020016040519081016040528092919081815260200182805480156114d357602002820191906000526020600020905b8160009054906101000a900473ffffffffffffffffffffffffffffffffffffffff1673ffffffffffffffffffffffffffffffffffffffff1681526020019060010190808311611489575b50505050509050919050565b601281565b60011515600560003373ffffffffffffffffffffffffffffffffffffffff1673ffffffffffffffffffffffffffffffffffffffff16815260200190815260200160002060000160149054906101000a900460ff1615151461154457600080fd5b6004600082815260200190815260200160002060060160009054906101000a900473ffffffffffffffffffffffffffffffffffffffff1673ffffffffffffffffffffffffffffffffffffffff163373ffffffffffffffffffffffffffffffffffffffff16146115b257600080fd5b6004600082815260200190815260200160002060060160009054906101000a900473ffffffffffffffffffffffffffffffffffffffff1673ffffffffffffffffffffffffffffffffffffffff163373ffffffffffffffffffffffffffffffffffffffff16141561166f576004600082815260200190815260200160002060030160009054906101000a900460ff16156004600083815260200190815260200160002060030160006101000a81548160ff0219169083151502179055505b50565b60011515600560003373ffffffffffffffffffffffffffffffffffffffff1673ffffffffffffffffffffffffffffffffffffffff16815260200190815260200160002060000160149054906101000a900460ff161515146116d257600080fd5b6000801b8414806116e557506000801b84145b15611758576040517f08c379a00000000000000000000000000000000000000000000000000000000081526004018080602001828103825260138152602001807f6e6f7420612076616c696420616464726573730000000000000000000000000081525060200191505060405180910390fd5b600115156004600086815260200190815260200160002060030160019054906101000a900460ff16151514156117d9576040517f08c379a00000000000000000000000000000000000000000000000000000000081526004018080602001828103825260438152602001806134c26043913960600191505060405180910390fd5b622819a082141580156117f057506301e133808214155b15611863576040517f08c379a00000000000000000000000000000000000000000000000000000000081526004018080602001828103825260198152602001807f4d757374206265206d6f6e74686c79206f7220796561726c790000000000000081525060200191505060405180910390fd5b60008090506001600560003373ffffffffffffffffffffffffffffffffffffffff1673ffffffffffffffffffffffffffffffffffffffff16815260200190815260200160002060010154106118f857600560003373ffffffffffffffffffffffffffffffffffffffff1673ffffffffffffffffffffffffffffffffffffffff1681526020019081526020016000206001015490505b6001600560003373ffffffffffffffffffffffffffffffffffffffff1673ffffffffffffffffffffffffffffffffffffffff1681526020019081526020016000206001015401600560003373ffffffffffffffffffffffffffffffffffffffff1673ffffffffffffffffffffffffffffffffffffffff168152602001908152602001600020600101819055506040518061010001604052808681526020018581526020018481526020016001151581526020016001151581526020018381526020018281526020013373ffffffffffffffffffffffffffffffffffffffff168152506004600087815260200190815260200160002060008201518160000155602082015181600101556040820151816002015560608201518160030160006101000a81548160ff02191690831515021790555060808201518160030160016101000a81548160ff02191690831515021790555060a0820151816004019080519060200190611a6792919061341c565b5060c0820151816005015560e08201518160060160006101000a81548173ffffffffffffffffffffffffffffffffffffffff021916908373ffffffffffffffffffffffffffffffffffffffff16021790555090505060016004600087815260200190815260200160002060030160006101000a81548160ff0219169083151502179055505050505050565b600860009054906101000a900473ffffffffffffffffffffffffffffffffffffffff1681565b60011515600560003373ffffffffffffffffffffffffffffffffffffffff1673ffffffffffffffffffffffffffffffffffffffff16815260200190815260200160002060000160149054906101000a900460ff16151514611b7857600080fd5b60013373ffffffffffffffffffffffffffffffffffffffff16311015611be9576040517f08c379a000000000000000000000000000000000000000000000000000000000815260040180806020018281038252602d815260200180613505602d913960400191505060405180910390fd5b60008290508073ffffffffffffffffffffffffffffffffffffffff166108fc839081150290604051600060405180830381858888f19350505050158015611c34573d6000803e3d6000fd5b50505050565b60008060008373ffffffffffffffffffffffffffffffffffffffff1673ffffffffffffffffffffffffffffffffffffffff168152602001908152602001600020549050919050565b600060011515600360003373ffffffffffffffffffffffffffffffffffffffff1673ffffffffffffffffffffffffffffffffffffffff16815260200190815260200160002060000160149054906101000a900460ff16151514611ce457600080fd5b60001515600760003373ffffffffffffffffffffffffffffffffffffffff1673ffffffffffffffffffffffffffffffffffffffff168152602001908152602001600020600084815260200190815260200160002060000160009054906101000a900460ff1615151415611d5a5760009050611e90565b600760003373ffffffffffffffffffffffffffffffffffffffff1673ffffffffffffffffffffffffffffffffffffffff168152602001908152602001600020600083815260200190815260200160002060010154421015611dbe5760019050611e90565b600760003373ffffffffffffffffffffffffffffffffffffffff1673ffffffffffffffffffffffffffffffffffffffff1681526020019081526020016000206000838152602001908152602001600020600101544210611e8b575b600760003373ffffffffffffffffffffffffffffffffffffffff1673ffffffffffffffffffffffffffffffffffffffff168152602001908152602001600020600083815260200190815260200160002060010154421115611e8257611e7d82611e95565b611e19565b60019050611e90565b600090505b919050565b60011515600360003373ffffffffffffffffffffffffffffffffffffffff1673ffffffffffffffffffffffffffffffffffffffff16815260200190815260200160002060000160149054906101000a900460ff16151514611ef557600080fd5b600760003373ffffffffffffffffffffffffffffffffffffffff1673ffffffffffffffffffffffffffffffffffffffff168152602001908152602001600020600082815260200190815260200160002060010154421015611fbe576040517f08c379a00000000000000000000000000000000000000000000000000000000081526004018080602001828103825260138152602001807f5061796d656e7420757020746f20646174652e0000000000000000000000000081525060200191505060405180910390fd5b60006004600083815260200190815260200160002060060160009054906101000a900473ffffffffffffffffffffffffffffffffffffffff1690508073ffffffffffffffffffffffffffffffffffffffff166108fc60046000858152602001908152602001600020600101549081150290604051600060405180830381858888f19350505050158015612055573d6000803e3d6000fd5b506004600083815260200190815260200160002060020154600760003373ffffffffffffffffffffffffffffffffffffffff1673ffffffffffffffffffffffffffffffffffffffff16815260200190815260200160002060008481526020019081526020016000206001015401600760003373ffffffffffffffffffffffffffffffffffffffff1673ffffffffffffffffffffffffffffffffffffffff1681526020019081526020016000206000848152602001908152602001600020600101819055505050565b6040518060400160405280600381526020017f534243000000000000000000000000000000000000000000000000000000000081525081565b60008060003373ffffffffffffffffffffffffffffffffffffffff1673ffffffffffffffffffffffffffffffffffffffff168152602001908152602001600020548211156121a357600080fd5b816000803373ffffffffffffffffffffffffffffffffffffffff1673ffffffffffffffffffffffffffffffffffffffff16815260200190815260200160002054036000803373ffffffffffffffffffffffffffffffffffffffff1673ffffffffffffffffffffffffffffffffffffffff16815260200190815260200160002081905550816000808573ffffffffffffffffffffffffffffffffffffffff1673ffffffffffffffffffffffffffffffffffffffff16815260200190815260200160002054016000808573ffffffffffffffffffffffffffffffffffffffff1673ffffffffffffffffffffffffffffffffffffffff168152602001908152602001600020819055508273ffffffffffffffffffffffffffffffffffffffff163373ffffffffffffffffffffffffffffffffffffffff167fddf252ad1be2c89b69c2b068fc378daa952ba7f163c4a11628f55a4df523b3ef846040518082815260200191505060405180910390a36001905092915050565b60011515600360003373ffffffffffffffffffffffffffffffffffffffff1673ffffffffffffffffffffffffffffffffffffffff16815260200190815260200160002060000160149054906101000a900460ff1615151461237857600080fd5b600015156004600083815260200190815260200160002060030160019054906101000a900460ff16151514156123f9576040517f08c379a00000000000000000000000000000000000000000000000000000000081526004018080602001828103825260258152602001806135326025913960400191505060405180910390fd5b600015156004600083815260200190815260200160002060030160009054906101000a900460ff1615151415612497576040517f08c379a000000000000000000000000000000000000000000000000000000000815260040180806020018281038252601f8152602001807f7468697320737562736372697074696f6e206973206e6f74206163746976650081525060200191505060405180910390fd5b60011515600760003373ffffffffffffffffffffffffffffffffffffffff1673ffffffffffffffffffffffffffffffffffffffff168152602001908152602001600020600083815260200190815260200160002060000160009054906101000a900460ff1615151415612572576040517f08c379a000000000000000000000000000000000000000000000000000000000815260040180806020018281038252601b8152602001807f796f752061726520616c726561647920737562736372696265642e000000000081525060200191505060405180910390fd5b604051806060016040528060011515815260200142815260200142815250600760003373ffffffffffffffffffffffffffffffffffffffff1673ffffffffffffffffffffffffffffffffffffffff168152602001908152602001600020600083815260200190815260200160002060008201518160000160006101000a81548160ff021916908315150217905550602082015181600101556040820151816002015590505042600760003373ffffffffffffffffffffffffffffffffffffffff1673ffffffffffffffffffffffffffffffffffffffff1681526020019081526020016000206000838152602001908152602001600020600101819055506001600760003373ffffffffffffffffffffffffffffffffffffffff1673ffffffffffffffffffffffffffffffffffffffff168152602001908152602001600020600083815260200190815260200160002060000160006101000a81548160ff0219169083151502179055506126e481611e95565b600660006004600084815260200190815260200160002060060160009054906101000a900473ffffffffffffffffffffffffffffffffffffffff1673ffffffffffffffffffffffffffffffffffffffff1673ffffffffffffffffffffffffffffffffffffffff168152602001908152602001600020600060046000848152602001908152602001600020600501548152602001908152602001600020600360003373ffffffffffffffffffffffffffffffffffffffff1673ffffffffffffffffffffffffffffffffffffffff16815260200190815260200160002060000160009054906101000a900473ffffffffffffffffffffffffffffffffffffffff169080600181540180825580915050600190039060005260206000200160009091909190916101000a81548173ffffffffffffffffffffffffffffffffffffffff021916908373ffffffffffffffffffffffffffffffffffffffff16021790555050565b60011515600360003373ffffffffffffffffffffffffffffffffffffffff1673ffffffffffffffffffffffffffffffffffffffff16815260200190815260200160002060000160149054906101000a900460ff161515146128a657600080fd5b60001515600760003373ffffffffffffffffffffffffffffffffffffffff1673ffffffffffffffffffffffffffffffffffffffff168152602001908152602001600020600083815260200190815260200160002060000160009054906101000a900460ff161515141561291857600080fd5b6001600660006004600085815260200190815260200160002060060160009054906101000a900473ffffffffffffffffffffffffffffffffffffffff1673ffffffffffffffffffffffffffffffffffffffff1673ffffffffffffffffffffffffffffffffffffffff168152602001908152602001600020600060046000858152602001908152602001600020600501548152602001908152602001600020805490501415612b0b576000600760003373ffffffffffffffffffffffffffffffffffffffff1673ffffffffffffffffffffffffffffffffffffffff168152602001908152602001600020600083815260200190815260200160002060000160006101000a81548160ff021916908315150217905550600660006004600084815260200190815260200160002060060160009054906101000a900473ffffffffffffffffffffffffffffffffffffffff1673ffffffffffffffffffffffffffffffffffffffff1673ffffffffffffffffffffffffffffffffffffffff168152602001908152602001600020600060046000848152602001908152602001600020600501548152602001908152602001600020805480612ad157fe5b6001900381819060005260206000200160006101000a81549073ffffffffffffffffffffffffffffffffffffffff02191690559055613392565b3373ffffffffffffffffffffffffffffffffffffffff16600660006004600085815260200190815260200160002060060160009054906101000a900473ffffffffffffffffffffffffffffffffffffffff1673ffffffffffffffffffffffffffffffffffffffff1673ffffffffffffffffffffffffffffffffffffffff1681526020019081526020016000206000600460008581526020019081526020016000206005015481526020019081526020016000206001600660006004600087815260200190815260200160002060060160009054906101000a900473ffffffffffffffffffffffffffffffffffffffff1673ffffffffffffffffffffffffffffffffffffffff1673ffffffffffffffffffffffffffffffffffffffff168152602001908152602001600020600060046000878152602001908152602001600020600501548152602001908152602001600020805490500381548110612c6b57fe5b9060005260206000200160009054906101000a900473ffffffffffffffffffffffffffffffffffffffff1673ffffffffffffffffffffffffffffffffffffffff161415612dfd576000600760003373ffffffffffffffffffffffffffffffffffffffff1673ffffffffffffffffffffffffffffffffffffffff168152602001908152602001600020600083815260200190815260200160002060000160006101000a81548160ff021916908315150217905550600660006004600084815260200190815260200160002060060160009054906101000a900473ffffffffffffffffffffffffffffffffffffffff1673ffffffffffffffffffffffffffffffffffffffff1673ffffffffffffffffffffffffffffffffffffffff168152602001908152602001600020600060046000848152602001908152602001600020600501548152602001908152602001600020805480612dc357fe5b6001900381819060005260206000200160006101000a81549073ffffffffffffffffffffffffffffffffffffffff02191690559055613391565b600080600090505b600660006004600086815260200190815260200160002060060160009054906101000a900473ffffffffffffffffffffffffffffffffffffffff1673ffffffffffffffffffffffffffffffffffffffff1673ffffffffffffffffffffffffffffffffffffffff16815260200190815260200160002060006004600086815260200190815260200160002060050154815260200190815260200160002080549050811015612fc6573373ffffffffffffffffffffffffffffffffffffffff16600660006004600087815260200190815260200160002060060160009054906101000a900473ffffffffffffffffffffffffffffffffffffffff1673ffffffffffffffffffffffffffffffffffffffff1673ffffffffffffffffffffffffffffffffffffffff1681526020019081526020016000206000600460008781526020019081526020016000206005015481526020019081526020016000208281548110612f6a57fe5b9060005260206000200160009054906101000a900473ffffffffffffffffffffffffffffffffffffffff1673ffffffffffffffffffffffffffffffffffffffff161415612fb957809150612fc6565b8080600101915050612e05565b5060008190505b6001600660006004600087815260200190815260200160002060060160009054906101000a900473ffffffffffffffffffffffffffffffffffffffff1673ffffffffffffffffffffffffffffffffffffffff1673ffffffffffffffffffffffffffffffffffffffff168152602001908152602001600020600060046000878152602001908152602001600020600501548152602001908152602001600020805490500381101561324857600660006004600086815260200190815260200160002060060160009054906101000a900473ffffffffffffffffffffffffffffffffffffffff1673ffffffffffffffffffffffffffffffffffffffff1673ffffffffffffffffffffffffffffffffffffffff168152602001908152602001600020600060046000868152602001908152602001600020600501548152602001908152602001600020600182018154811061312157fe5b9060005260206000200160009054906101000a900473ffffffffffffffffffffffffffffffffffffffff16600660006004600087815260200190815260200160002060060160009054906101000a900473ffffffffffffffffffffffffffffffffffffffff1673ffffffffffffffffffffffffffffffffffffffff1673ffffffffffffffffffffffffffffffffffffffff16815260200190815260200160002060006004600087815260200190815260200160002060050154815260200190815260200160002082815481106131f357fe5b9060005260206000200160006101000a81548173ffffffffffffffffffffffffffffffffffffffff021916908373ffffffffffffffffffffffffffffffffffffffff1602179055508080600101915050612fcd565b506000600760003373ffffffffffffffffffffffffffffffffffffffff1673ffffffffffffffffffffffffffffffffffffffff168152602001908152602001600020600084815260200190815260200160002060000160006101000a81548160ff021916908315150217905550600660006004600085815260200190815260200160002060060160009054906101000a900473ffffffffffffffffffffffffffffffffffffffff1673ffffffffffffffffffffffffffffffffffffffff1673ffffffffffffffffffffffffffffffffffffffff16815260200190815260200160002060006004600085815260200190815260200160002060050154815260200190815260200160002080548061335a57fe5b6001900381819060005260206000200160006101000a81549073ffffffffffffffffffffffffffffffffffffffff02191690559055505b5b50565b6000600160008473ffffffffffffffffffffffffffffffffffffffff1673ffffffffffffffffffffffffffffffffffffffff16815260200190815260200160002060008373ffffffffffffffffffffffffffffffffffffffff1673ffffffffffffffffffffffffffffffffffffffff16815260200190815260200160002054905092915050565b828054600181600116156101000203166002900490600052602060002090601f016020900481019282601f1061345d57805160ff191683800117855561348b565b8280016001018555821561348b579182015b8281111561348a57825182559160200191906001019061346f565b5b509050613498919061349c565b5090565b6134be91905b808211156134ba5760008160009055506001016134a2565b5090565b9056fe4120737562736372697074696f6e20706c616e20776974682074686973206e616d6520616c7265616479206578697374732c2075736520616e6f74686572206e616d65596f75722062616c616e6365206973206e6f74206c6172676520656e6f75676820746f207472616e736665722e7468657265206973206e6f20737562736372697074696f6e206f662074686973206e616d65596f7520646f206e6f74206f776e207468697320737562736372697074696f6e2e537562736372697074696f6e2062792074686174206e616d6520646f6573206e6f74206578697374a26469706673582212202390d06a4eb380abbf2cc8b42a07f721913daaf77189b25deab0a94c8758d47764736f6c63430006000033",
  "source": "// SPDX-License-Identifier: hasanhenry426\r\npragma solidity >=0.6.0 <=0.9.0;\r\n\r\nimport \"./helper_contracts/ERC20.sol\";\r\n\r\ncontract Cryptofans is ERC20Basic{\r\n    //subscription periods\r\n    uint constant MONTH= 2628000;\r\n    uint constant YEAR_IN_SECONDS = 31536000;\r\n    //structs\r\n    struct Subscriber {\r\n        address addy;// sub address\r\n        bool registered;\r\n        uint256 start;\r\n    }\r\n    struct Provider{\r\n        address add;\r\n        bool registered; \r\n        uint numproposal;\r\n    }\r\n    struct subPlan{\r\n        bool in_use;\r\n        uint256 next_payday;\r\n        uint256 start_payday;\r\n    }\r\n    struct Proposal { \r\n        bytes32 name;   //(?) short name (up to 32 bytes) X \r\n        uint cost;\r\n        uint256 period;// (   billed cycle in days )\r\n        bool active; // active or not\r\n        bool name_taken;\r\n        string description;\r\n        uint key;//-> act like a hash \r\n        address creator; \r\n    }\r\n    //data \r\n    mapping(address => Subscriber) subscribers;//subscriber's address to each individual Sub struct\r\n    mapping(bytes32=>Proposal) proposals;//All existing proposals= key:name val:proposal struct  \r\n    mapping(address => Provider) providers;//providers' addresses to an individual provider struct  \r\n    mapping(address=>mapping(uint=>address[])) sub_ids;//provider's address to key to list of subscribers\r\n    mapping(address=>mapping(bytes32=>subPlan)) info_by_prop;//Subs' address mapped to a proposal name mapped to a subscribers' plan \r\n    ////ERC20 INTITIALIZE\r\n    address public user;\r\n\r\n    //////CRYPTOFANS FUNCTIONS//////\r\n    function registerasSubscriber () public {\r\n        // if statement to check if they already registered\r\n        // nested mapping goes here??\r\n        if (subscribers[msg.sender].registered == true){\r\n            revert(\"You are already registered\");\r\n            // change revert function to whatever necessary if it doesnt work\r\n        }\r\n        else{\r\n            subscribers[msg.sender].registered = true;\r\n            subscribers[msg.sender].addy = msg.sender;\r\n        }\r\n    }\r\n    \r\n    function registerasProvider () public {\r\n        // if statement to check if ti exists\r\n        if (providers[msg.sender].registered == true){\r\n            revert(\"You are already registered\");\r\n            // change revert function to whatever necessary if it doesnt work\r\n        }else {\r\n            providers[msg.sender].registered = true;\r\n            providers[msg.sender].add = msg.sender;\r\n        }\r\n    }\r\n\r\n    modifier onlyProvider(){ //modifier for provider\r\n        require(providers[msg.sender].registered == true) ;\r\n        _;\r\n    }\r\n    modifier onlySubscriber(){// Modifier for subscriber\r\n        require(subscribers[msg.sender].registered == true) ;\r\n        _;\r\n    }\r\n    \r\n    function createSubscription(bytes32 name, uint cost, uint period, string memory description) onlyProvider public {\r\n        //  if statement to check that proposal by this mname does not exist\r\n        if(name==0x0000000000000000000000000000000000000000000000000000000000000000 || name==0x0){\r\n            revert(\"not a valid address\");\r\n        }\r\n        if (proposals[name].name_taken == true){\r\n            revert(\"A subscription plan with this name already exists, use another name\");\r\n        }\r\n        if ((period != MONTH && period != YEAR_IN_SECONDS) ){\r\n            revert(\"Must be monthly or yearly\");\r\n        }\r\n        uint key_num = 0; // index 0 proposal 1\r\n        if (providers[msg.sender].numproposal >= 1){ // if greater than 1 proposal\r\n            key_num = providers[msg.sender].numproposal; // index of latest proposal\r\n        }\r\n        providers[msg.sender].numproposal = providers[msg.sender].numproposal + 1; // proposal count begins at 1\r\n        proposals[name] = Proposal(name, cost, period, true, true, description, key_num, msg.sender); // registers proposal\r\n        proposals[name].active = true ; // turns on activity \r\n    }\r\n\r\n    //################//warn subscribers they are about to purchase subscription(proposal)\r\n    function pay(bytes32 prop_h) public payable onlySubscriber{\r\n        if(block.timestamp < info_by_prop[msg.sender][prop_h].next_payday){\r\n            revert(\"Payment up to date.\");\r\n        }else{ \r\n            address payable payable_creator=payable(proposals[prop_h].creator);\r\n            payable_creator.transfer(proposals[prop_h].cost);\r\n            info_by_prop[msg.sender][prop_h].next_payday= info_by_prop[msg.sender][prop_h].next_payday+ proposals[prop_h].period;\r\n        }\r\n    }\r\n    //##################\r\n    function collect(address newholder, uint256 amount) public payable onlyProvider{\r\n       if(msg.sender.balance<1){\r\n            revert(\"Your balance is not large enough to transfer.\");\r\n       }else{\r\n        address payable newowner = payable(newholder);\r\n        (newowner).transfer(amount);\r\n       }\r\n    }\r\n    //####################\r\n    function sub_to_plan(bytes32 prop_h) public payable onlySubscriber{\r\n        if(proposals[prop_h].name_taken == false){\r\n            revert(\"there is no subscription of this name\");\r\n        }\r\n        if(proposals[prop_h].active == false){\r\n            revert(\"this subscription is not active\");\r\n        }\r\n        if(info_by_prop[msg.sender][prop_h].in_use == true){\r\n            revert(\"you are already subscribed.\");\r\n        }\r\n        info_by_prop[msg.sender][prop_h]=subPlan(true, block.timestamp, block.timestamp);\r\n        info_by_prop[msg.sender][prop_h].next_payday = block.timestamp;\r\n        info_by_prop[msg.sender][prop_h].in_use = true;\r\n        pay(prop_h);\r\n        sub_ids[proposals[prop_h].creator][proposals[prop_h].key].push(subscribers[msg.sender].addy);\r\n    }\r\n   \r\n    // address 1 = bytes32\"netflix\" with key 0, \"youtube\" w key 1\r\n    // address 2 = bytes32\"netflix\" with key 0, \"hulu\" w key 1  \r\n\r\n    function unsub_to_plan(bytes32 prop_h) public onlySubscriber{\r\n        if(info_by_prop[msg.sender][prop_h].in_use == false){\r\n            revert();\r\n        }else if(sub_ids[proposals[prop_h].creator][proposals[prop_h].key].length==1){\r\n            info_by_prop[msg.sender][prop_h].in_use = false;\r\n            sub_ids[proposals[prop_h].creator][proposals[prop_h].key].pop();\r\n        }else if(sub_ids[proposals[prop_h].creator][proposals[prop_h].key][sub_ids[proposals[prop_h].creator][proposals[prop_h].key].length-1]==msg.sender){\r\n                info_by_prop[msg.sender][prop_h].in_use = false;\r\n                sub_ids[proposals[prop_h].creator][proposals[prop_h].key].pop();\r\n        }else {\r\n        uint index; \r\n        for(uint i=0;i<sub_ids[proposals[prop_h].creator][proposals[prop_h].key].length;i++){\r\n            if(sub_ids[proposals[prop_h].creator][proposals[prop_h].key][i]==msg.sender){\r\n                index=i;\r\n                break;\r\n            }\r\n        }\r\n        for (uint j = index; j<sub_ids[proposals[prop_h].creator][proposals[prop_h].key].length-1; j++){\r\n            sub_ids[proposals[prop_h].creator][proposals[prop_h].key][j] = sub_ids[proposals[prop_h].creator][proposals[prop_h].key][j+1];\r\n        }\r\n        info_by_prop[msg.sender][prop_h].in_use = false;\r\n        sub_ids[proposals[prop_h].creator][proposals[prop_h].key].pop();\r\n        }\r\n    }\r\n\r\n    function findSubscription (bytes32 searchName) public view returns (bytes32,uint, uint,string memory) {\r\n        if (proposals[searchName].active == true){\r\n            return (proposals[searchName].name,proposals[searchName].cost,proposals[searchName].period, proposals[searchName].description) ;\r\n        }\r\n        else{\r\n            revert(\"Subscription by that name does not exist\") ; \r\n        }\r\n    }\r\n\r\n    function on_off_switch(bytes32 prop_h) public onlyProvider{\r\n        if(msg.sender!=proposals[prop_h].creator){\r\n            revert();\r\n        }else if(msg.sender==proposals[prop_h].creator){\r\n            proposals[prop_h].active=!proposals[prop_h].active;\r\n        }\r\n    }\r\n\r\n    function view_subs(bytes32 prop_h) onlyProvider public view returns (address[] memory) {\r\n        if(msg.sender!=proposals[prop_h].creator){\r\n            revert(\"You do not own this subscription.\");\r\n        }\r\n        return sub_ids[proposals[prop_h].creator][proposals[prop_h].key];\r\n        \r\n    }\r\n\r\n    //###################\r\n    function accessSubscscription(bytes32 prop_h) public payable onlySubscriber returns(bool){\r\n        if(info_by_prop[msg.sender][prop_h].in_use == false){\r\n            return false;\r\n        }\r\n        if (block.timestamp < info_by_prop[msg.sender][prop_h].next_payday){\r\n            return true;\r\n        }\r\n        if(block.timestamp >= info_by_prop[msg.sender][prop_h].next_payday){\r\n            while(block.timestamp > info_by_prop[msg.sender][prop_h].next_payday){\r\n                pay(prop_h);\r\n            }\r\n            return true;\r\n        }\r\n        else{\r\n            return false;\r\n        }   \r\n    }\r\n    \r\n}",
  "sourcePath": "C:\\Users\\hchou\\Desktop\\V4Cryptofans-Dapp\\Cryptofans-Dapp-V4\\Cryptofans-Dapp\\cryptofans-contract\\contracts\\Cryptofans.sol",
  "compiler": {
    "name": "solc",
    "version": "0.6.0+commit.26b70077.Emscripten.clang"
  },
  "schemaVersion": "3.0.23",
  "updatedAt": "2022-05-06T21:28:44.214Z",
  "devdoc": {
    "methods": {}
  },
  "userdoc": {
    "methods": {
      "registerasSubscriber()": {
        "notice": "///CRYPTOFANS FUNCTIONS//////"
      }
    }
  }
}