{
  "contractName": "Cryptofans",
  "abi": [
    {
      "inputs": [],
      "name": "registerasSubscriber",
      "outputs": [],
      "stateMutability": "nonpayable",
      "type": "function"
    },
    {
      "inputs": [],
      "name": "registerasProvider",
      "outputs": [],
      "stateMutability": "nonpayable",
      "type": "function"
    },
    {
      "inputs": [
        {
          "internalType": "bytes32",
          "name": "name",
          "type": "bytes32"
        },
        {
          "internalType": "uint256",
          "name": "cost",
          "type": "uint256"
        },
        {
          "internalType": "uint256",
          "name": "period",
          "type": "uint256"
        },
        {
          "internalType": "string",
          "name": "description",
          "type": "string"
        }
      ],
      "name": "createSubscription",
      "outputs": [],
      "stateMutability": "nonpayable",
      "type": "function"
    },
    {
      "inputs": [
        {
          "internalType": "bytes32",
          "name": "prop_h",
          "type": "bytes32"
        }
      ],
      "name": "pay",
      "outputs": [],
      "stateMutability": "payable",
      "type": "function",
      "payable": true
    },
    {
      "inputs": [
        {
          "internalType": "address",
          "name": "newholder",
          "type": "address"
        },
        {
          "internalType": "uint256",
          "name": "amount",
          "type": "uint256"
        }
      ],
      "name": "collect",
      "outputs": [],
      "stateMutability": "payable",
      "type": "function",
      "payable": true
    },
    {
      "inputs": [
        {
          "internalType": "bytes32",
          "name": "prop_h",
          "type": "bytes32"
        }
      ],
      "name": "sub_to_plan",
      "outputs": [],
      "stateMutability": "payable",
      "type": "function",
      "payable": true
    },
    {
      "inputs": [
        {
          "internalType": "bytes32",
          "name": "prop_h",
          "type": "bytes32"
        }
      ],
      "name": "unsub_to_plan",
      "outputs": [],
      "stateMutability": "nonpayable",
      "type": "function"
    },
    {
      "inputs": [
        {
          "internalType": "bytes32",
          "name": "searchName",
          "type": "bytes32"
        }
      ],
      "name": "findSubscription",
      "outputs": [
        {
          "internalType": "bytes32",
          "name": "",
          "type": "bytes32"
        },
        {
          "internalType": "uint256",
          "name": "",
          "type": "uint256"
        },
        {
          "internalType": "uint256",
          "name": "",
          "type": "uint256"
        },
        {
          "internalType": "string",
          "name": "",
          "type": "string"
        }
      ],
      "stateMutability": "view",
      "type": "function",
      "constant": true
    },
    {
      "inputs": [
        {
          "internalType": "bytes32",
          "name": "prop_h",
          "type": "bytes32"
        }
      ],
      "name": "on_off_switch",
      "outputs": [],
      "stateMutability": "nonpayable",
      "type": "function"
    },
    {
      "inputs": [
        {
          "internalType": "bytes32",
          "name": "prop_h",
          "type": "bytes32"
        }
      ],
      "name": "view_subs",
      "outputs": [
        {
          "internalType": "address[]",
          "name": "",
          "type": "address[]"
        }
      ],
      "stateMutability": "view",
      "type": "function",
      "constant": true
    },
    {
      "inputs": [
        {
          "internalType": "bytes32",
          "name": "prop_h",
          "type": "bytes32"
        }
      ],
      "name": "accessSubscscription",
      "outputs": [
        {
          "internalType": "bool",
          "name": "",
          "type": "bool"
        }
      ],
      "stateMutability": "payable",
      "type": "function",
      "payable": true
    }
  ],
  "bytecode": "0x608060405234801561001057600080fd5b50612857806100206000396000f3fe60806040526004361061009c5760003560e01c80634d368a79116100645780634d368a79146102635780636b8357ac14610349578063717baab7146103975780638609cad1146103dd578063b8fbf8591461040b578063c2003123146104395761009c565b80630daf9687146100a15780630ecea00d146100b857806317089918146100cf57806327e69c4514610198578063327e2e4c14610228575b600080fd5b3480156100ad57600080fd5b506100b6610474565b005b3480156100c457600080fd5b506100cd61061c565b005b3480156100db57600080fd5b50610108600480360360208110156100f257600080fd5b81019080803590602001909291905050506107c1565b6040518085815260200184815260200183815260200180602001828103825283818151815260200191508051906020019080838360005b8381101561015a57808201518184015260208101905061013f565b50505050905090810190601f1680156101875780820380516001836020036101000a031916815260200191505b509550505050505060405180910390f35b3480156101a457600080fd5b506101d1600480360360208110156101bb57600080fd5b8101908080359060200190929190505050610954565b6040518080602001828103825283818151815260200191508051906020019060200280838360005b838110156102145780820151818401526020810190506101f9565b505050509050019250505060405180910390f35b34801561023457600080fd5b506102616004803603602081101561024b57600080fd5b8101908080359060200190929190505050610b98565b005b34801561026f57600080fd5b506103476004803603608081101561028657600080fd5b81019080803590602001909291908035906020019092919080359060200190929190803590602001906401000000008111156102c157600080fd5b8201836020820111156102d357600080fd5b803590602001918460018302840111640100000000831117156102f557600080fd5b91908080601f016020809104026020016040519081016040528093929190818152602001838380828437600081840152601f19601f820116905080830192505050505050509192919290505050610d26565b005b6103956004803603604081101561035f57600080fd5b81019080803573ffffffffffffffffffffffffffffffffffffffff169060200190929190803590602001909291905050506111ad565b005b6103c3600480360360208110156103ad57600080fd5b81019080803590602001909291905050506112cf565b604051808215151515815260200191505060405180910390f35b610409600480360360208110156103f357600080fd5b81019080803590602001909291905050506114e1565b005b6104376004803603602081101561042157600080fd5b8101908080359060200190929190505050611768565b005b34801561044557600080fd5b506104726004803603602081101561045c57600080fd5b8101908080359060200190929190505050611b75565b005b60011515600260003373ffffffffffffffffffffffffffffffffffffffff1673ffffffffffffffffffffffffffffffffffffffff16815260200190815260200160002060000160149054906101000a900460ff161515141561053e576040517f08c379a000000000000000000000000000000000000000000000000000000000815260040180806020018281038252601a8152602001807f596f752061726520616c7265616479207265676973746572656400000000000081525060200191505060405180910390fd5b6001600260003373ffffffffffffffffffffffffffffffffffffffff1673ffffffffffffffffffffffffffffffffffffffff16815260200190815260200160002060000160146101000a81548160ff02191690831515021790555033600260003373ffffffffffffffffffffffffffffffffffffffff1673ffffffffffffffffffffffffffffffffffffffff16815260200190815260200160002060000160006101000a81548173ffffffffffffffffffffffffffffffffffffffff021916908373ffffffffffffffffffffffffffffffffffffffff160217905550565b600115156000803373ffffffffffffffffffffffffffffffffffffffff1673ffffffffffffffffffffffffffffffffffffffff16815260200190815260200160002060000160149054906101000a900460ff16151514156106e5576040517f08c379a000000000000000000000000000000000000000000000000000000000815260040180806020018281038252601a8152602001807f596f752061726520616c7265616479207265676973746572656400000000000081525060200191505060405180910390fd5b60016000803373ffffffffffffffffffffffffffffffffffffffff1673ffffffffffffffffffffffffffffffffffffffff16815260200190815260200160002060000160146101000a81548160ff021916908315150217905550336000803373ffffffffffffffffffffffffffffffffffffffff1673ffffffffffffffffffffffffffffffffffffffff16815260200190815260200160002060000160006101000a81548173ffffffffffffffffffffffffffffffffffffffff021916908373ffffffffffffffffffffffffffffffffffffffff160217905550565b60008060006060600115156001600087815260200190815260200160002060030160009054906101000a900460ff16151514156108fc5760016000868152602001908152602001600020600001546001600087815260200190815260200160002060010154600160008881526020019081526020016000206002015460016000898152602001908152602001600020600401808054600181600116156101000203166002900480601f0160208091040260200160405190810160405280929190818152602001828054600181600116156101000203166002900480156108e85780601f106108bd576101008083540402835291602001916108e8565b820191906000526020600020905b8154815290600101906020018083116108cb57829003601f168201915b50505050509050935093509350935061094d565b6040517f08c379a00000000000000000000000000000000000000000000000000000000081526004018080602001828103825260288152602001806127fa6028913960400191505060405180910390fd5b9193509193565b606060011515600260003373ffffffffffffffffffffffffffffffffffffffff1673ffffffffffffffffffffffffffffffffffffffff16815260200190815260200160002060000160149054906101000a900460ff161515146109b657600080fd5b6001600083815260200190815260200160002060060160009054906101000a900473ffffffffffffffffffffffffffffffffffffffff1673ffffffffffffffffffffffffffffffffffffffff163373ffffffffffffffffffffffffffffffffffffffff1614610a70576040517f08c379a00000000000000000000000000000000000000000000000000000000081526004018080602001828103825260218152602001806127d96021913960400191505060405180910390fd5b600360006001600085815260200190815260200160002060060160009054906101000a900473ffffffffffffffffffffffffffffffffffffffff1673ffffffffffffffffffffffffffffffffffffffff1673ffffffffffffffffffffffffffffffffffffffff168152602001908152602001600020600060016000858152602001908152602001600020600501548152602001908152602001600020805480602002602001604051908101604052809291908181526020018280548015610b8c57602002820191906000526020600020905b8160009054906101000a900473ffffffffffffffffffffffffffffffffffffffff1673ffffffffffffffffffffffffffffffffffffffff1681526020019060010190808311610b42575b50505050509050919050565b60011515600260003373ffffffffffffffffffffffffffffffffffffffff1673ffffffffffffffffffffffffffffffffffffffff16815260200190815260200160002060000160149054906101000a900460ff16151514610bf857600080fd5b6001600082815260200190815260200160002060060160009054906101000a900473ffffffffffffffffffffffffffffffffffffffff1673ffffffffffffffffffffffffffffffffffffffff163373ffffffffffffffffffffffffffffffffffffffff1614610c6657600080fd5b6001600082815260200190815260200160002060060160009054906101000a900473ffffffffffffffffffffffffffffffffffffffff1673ffffffffffffffffffffffffffffffffffffffff163373ffffffffffffffffffffffffffffffffffffffff161415610d23576001600082815260200190815260200160002060030160009054906101000a900460ff16156001600083815260200190815260200160002060030160006101000a81548160ff0219169083151502179055505b50565b60011515600260003373ffffffffffffffffffffffffffffffffffffffff1673ffffffffffffffffffffffffffffffffffffffff16815260200190815260200160002060000160149054906101000a900460ff16151514610d8657600080fd5b600115156001600086815260200190815260200160002060030160019054906101000a900460ff1615151415610e07576040517f08c379a00000000000000000000000000000000000000000000000000000000081526004018080602001828103825260438152602001806127696043913960600191505060405180910390fd5b6000801b600160008681526020019081526020016000206000015414610e95576040517f08c379a00000000000000000000000000000000000000000000000000000000081526004018080602001828103825260138152602001807f6e6f7420612076616c696420616464726573730000000000000000000000000081525060200191505060405180910390fd5b622819a08214158015610eac57506301e133808214155b15610f1f576040517f08c379a00000000000000000000000000000000000000000000000000000000081526004018080602001828103825260198152602001807f4d757374206265206d6f6e74686c79206f7220796561726c790000000000000081525060200191505060405180910390fd5b60008090506001600260003373ffffffffffffffffffffffffffffffffffffffff1673ffffffffffffffffffffffffffffffffffffffff1681526020019081526020016000206001015410610fb457600260003373ffffffffffffffffffffffffffffffffffffffff1673ffffffffffffffffffffffffffffffffffffffff1681526020019081526020016000206001015490505b6001600260003373ffffffffffffffffffffffffffffffffffffffff1673ffffffffffffffffffffffffffffffffffffffff1681526020019081526020016000206001015401600260003373ffffffffffffffffffffffffffffffffffffffff1673ffffffffffffffffffffffffffffffffffffffff168152602001908152602001600020600101819055506040518061010001604052808681526020018581526020018481526020016001151581526020016001151581526020018381526020018281526020013373ffffffffffffffffffffffffffffffffffffffff168152506001600087815260200190815260200160002060008201518160000155602082015181600101556040820151816002015560608201518160030160006101000a81548160ff02191690831515021790555060808201518160030160016101000a81548160ff02191690831515021790555060a08201518160040190805190602001906111239291906126c3565b5060c0820151816005015560e08201518160060160006101000a81548173ffffffffffffffffffffffffffffffffffffffff021916908373ffffffffffffffffffffffffffffffffffffffff160217905550905050600180600087815260200190815260200160002060030160006101000a81548160ff0219169083151502179055505050505050565b60011515600260003373ffffffffffffffffffffffffffffffffffffffff1673ffffffffffffffffffffffffffffffffffffffff16815260200190815260200160002060000160149054906101000a900460ff1615151461120d57600080fd5b60013373ffffffffffffffffffffffffffffffffffffffff1631101561127e576040517f08c379a000000000000000000000000000000000000000000000000000000000815260040180806020018281038252602d8152602001806127ac602d913960400191505060405180910390fd5b60008290508073ffffffffffffffffffffffffffffffffffffffff166108fc839081150290604051600060405180830381858888f193505050501580156112c9573d6000803e3d6000fd5b50505050565b6000600115156000803373ffffffffffffffffffffffffffffffffffffffff1673ffffffffffffffffffffffffffffffffffffffff16815260200190815260200160002060000160149054906101000a900460ff1615151461133057600080fd5b60001515600460003373ffffffffffffffffffffffffffffffffffffffff1673ffffffffffffffffffffffffffffffffffffffff168152602001908152602001600020600084815260200190815260200160002060000160009054906101000a900460ff16151514156113a657600090506114dc565b600460003373ffffffffffffffffffffffffffffffffffffffff1673ffffffffffffffffffffffffffffffffffffffff16815260200190815260200160002060008381526020019081526020016000206001015442101561140a57600190506114dc565b600460003373ffffffffffffffffffffffffffffffffffffffff1673ffffffffffffffffffffffffffffffffffffffff16815260200190815260200160002060008381526020019081526020016000206001015442106114d7575b600460003373ffffffffffffffffffffffffffffffffffffffff1673ffffffffffffffffffffffffffffffffffffffff1681526020019081526020016000206000838152602001908152602001600020600101544211156114ce576114c9826114e1565b611465565b600190506114dc565b600090505b919050565b600115156000803373ffffffffffffffffffffffffffffffffffffffff1673ffffffffffffffffffffffffffffffffffffffff16815260200190815260200160002060000160149054906101000a900460ff1615151461154057600080fd5b600460003373ffffffffffffffffffffffffffffffffffffffff1673ffffffffffffffffffffffffffffffffffffffff168152602001908152602001600020600082815260200190815260200160002060010154421015611609576040517f08c379a00000000000000000000000000000000000000000000000000000000081526004018080602001828103825260138152602001807f5061796d656e7420757020746f20646174652e0000000000000000000000000081525060200191505060405180910390fd5b60006001600083815260200190815260200160002060060160009054906101000a900473ffffffffffffffffffffffffffffffffffffffff1690508073ffffffffffffffffffffffffffffffffffffffff166108fc60016000858152602001908152602001600020600101549081150290604051600060405180830381858888f193505050501580156116a0573d6000803e3d6000fd5b506001600083815260200190815260200160002060020154600460003373ffffffffffffffffffffffffffffffffffffffff1673ffffffffffffffffffffffffffffffffffffffff16815260200190815260200160002060008481526020019081526020016000206001015401600460003373ffffffffffffffffffffffffffffffffffffffff1673ffffffffffffffffffffffffffffffffffffffff1681526020019081526020016000206000848152602001908152602001600020600101819055505050565b600115156000803373ffffffffffffffffffffffffffffffffffffffff1673ffffffffffffffffffffffffffffffffffffffff16815260200190815260200160002060000160149054906101000a900460ff161515146117c757600080fd5b60011515600460003373ffffffffffffffffffffffffffffffffffffffff1673ffffffffffffffffffffffffffffffffffffffff168152602001908152602001600020600083815260200190815260200160002060000160009054906101000a900460ff16151514156118a2576040517f08c379a000000000000000000000000000000000000000000000000000000000815260040180806020018281038252601b8152602001807f796f752061726520616c726561647920737562736372696265642e000000000081525060200191505060405180910390fd5b604051806060016040528060011515815260200142815260200142815250600460003373ffffffffffffffffffffffffffffffffffffffff1673ffffffffffffffffffffffffffffffffffffffff168152602001908152602001600020600083815260200190815260200160002060008201518160000160006101000a81548160ff021916908315150217905550602082015181600101556040820151816002015590505042600460003373ffffffffffffffffffffffffffffffffffffffff1673ffffffffffffffffffffffffffffffffffffffff1681526020019081526020016000206000838152602001908152602001600020600101819055506001600460003373ffffffffffffffffffffffffffffffffffffffff1673ffffffffffffffffffffffffffffffffffffffff168152602001908152602001600020600083815260200190815260200160002060000160006101000a81548160ff021916908315150217905550611a14816114e1565b600360006001600084815260200190815260200160002060060160009054906101000a900473ffffffffffffffffffffffffffffffffffffffff1673ffffffffffffffffffffffffffffffffffffffff1673ffffffffffffffffffffffffffffffffffffffff1681526020019081526020016000206000600160008481526020019081526020016000206005015481526020019081526020016000206000803373ffffffffffffffffffffffffffffffffffffffff1673ffffffffffffffffffffffffffffffffffffffff16815260200190815260200160002060000160009054906101000a900473ffffffffffffffffffffffffffffffffffffffff169080600181540180825580915050600190039060005260206000200160009091909190916101000a81548173ffffffffffffffffffffffffffffffffffffffff021916908373ffffffffffffffffffffffffffffffffffffffff16021790555050565b600115156000803373ffffffffffffffffffffffffffffffffffffffff1673ffffffffffffffffffffffffffffffffffffffff16815260200190815260200160002060000160149054906101000a900460ff16151514611bd457600080fd5b60001515600460003373ffffffffffffffffffffffffffffffffffffffff1673ffffffffffffffffffffffffffffffffffffffff168152602001908152602001600020600083815260200190815260200160002060000160009054906101000a900460ff1615151415611c4657600080fd5b6001600360006001600085815260200190815260200160002060060160009054906101000a900473ffffffffffffffffffffffffffffffffffffffff1673ffffffffffffffffffffffffffffffffffffffff1673ffffffffffffffffffffffffffffffffffffffff168152602001908152602001600020600060016000858152602001908152602001600020600501548152602001908152602001600020805490501415611e39576000600460003373ffffffffffffffffffffffffffffffffffffffff1673ffffffffffffffffffffffffffffffffffffffff168152602001908152602001600020600083815260200190815260200160002060000160006101000a81548160ff021916908315150217905550600360006001600084815260200190815260200160002060060160009054906101000a900473ffffffffffffffffffffffffffffffffffffffff1673ffffffffffffffffffffffffffffffffffffffff1673ffffffffffffffffffffffffffffffffffffffff168152602001908152602001600020600060016000848152602001908152602001600020600501548152602001908152602001600020805480611dff57fe5b6001900381819060005260206000200160006101000a81549073ffffffffffffffffffffffffffffffffffffffff021916905590556126c0565b3373ffffffffffffffffffffffffffffffffffffffff16600360006001600085815260200190815260200160002060060160009054906101000a900473ffffffffffffffffffffffffffffffffffffffff1673ffffffffffffffffffffffffffffffffffffffff1673ffffffffffffffffffffffffffffffffffffffff1681526020019081526020016000206000600160008581526020019081526020016000206005015481526020019081526020016000206001600360006001600087815260200190815260200160002060060160009054906101000a900473ffffffffffffffffffffffffffffffffffffffff1673ffffffffffffffffffffffffffffffffffffffff1673ffffffffffffffffffffffffffffffffffffffff168152602001908152602001600020600060016000878152602001908152602001600020600501548152602001908152602001600020805490500381548110611f9957fe5b9060005260206000200160009054906101000a900473ffffffffffffffffffffffffffffffffffffffff1673ffffffffffffffffffffffffffffffffffffffff16141561212b576000600460003373ffffffffffffffffffffffffffffffffffffffff1673ffffffffffffffffffffffffffffffffffffffff168152602001908152602001600020600083815260200190815260200160002060000160006101000a81548160ff021916908315150217905550600360006001600084815260200190815260200160002060060160009054906101000a900473ffffffffffffffffffffffffffffffffffffffff1673ffffffffffffffffffffffffffffffffffffffff1673ffffffffffffffffffffffffffffffffffffffff1681526020019081526020016000206000600160008481526020019081526020016000206005015481526020019081526020016000208054806120f157fe5b6001900381819060005260206000200160006101000a81549073ffffffffffffffffffffffffffffffffffffffff021916905590556126bf565b600080600090505b600360006001600086815260200190815260200160002060060160009054906101000a900473ffffffffffffffffffffffffffffffffffffffff1673ffffffffffffffffffffffffffffffffffffffff1673ffffffffffffffffffffffffffffffffffffffff168152602001908152602001600020600060016000868152602001908152602001600020600501548152602001908152602001600020805490508110156122f4573373ffffffffffffffffffffffffffffffffffffffff16600360006001600087815260200190815260200160002060060160009054906101000a900473ffffffffffffffffffffffffffffffffffffffff1673ffffffffffffffffffffffffffffffffffffffff1673ffffffffffffffffffffffffffffffffffffffff168152602001908152602001600020600060016000878152602001908152602001600020600501548152602001908152602001600020828154811061229857fe5b9060005260206000200160009054906101000a900473ffffffffffffffffffffffffffffffffffffffff1673ffffffffffffffffffffffffffffffffffffffff1614156122e7578091506122f4565b8080600101915050612133565b5060008190505b6001600360006001600087815260200190815260200160002060060160009054906101000a900473ffffffffffffffffffffffffffffffffffffffff1673ffffffffffffffffffffffffffffffffffffffff1673ffffffffffffffffffffffffffffffffffffffff168152602001908152602001600020600060016000878152602001908152602001600020600501548152602001908152602001600020805490500381101561257657600360006001600086815260200190815260200160002060060160009054906101000a900473ffffffffffffffffffffffffffffffffffffffff1673ffffffffffffffffffffffffffffffffffffffff1673ffffffffffffffffffffffffffffffffffffffff168152602001908152602001600020600060016000868152602001908152602001600020600501548152602001908152602001600020600182018154811061244f57fe5b9060005260206000200160009054906101000a900473ffffffffffffffffffffffffffffffffffffffff16600360006001600087815260200190815260200160002060060160009054906101000a900473ffffffffffffffffffffffffffffffffffffffff1673ffffffffffffffffffffffffffffffffffffffff1673ffffffffffffffffffffffffffffffffffffffff168152602001908152602001600020600060016000878152602001908152602001600020600501548152602001908152602001600020828154811061252157fe5b9060005260206000200160006101000a81548173ffffffffffffffffffffffffffffffffffffffff021916908373ffffffffffffffffffffffffffffffffffffffff16021790555080806001019150506122fb565b506000600460003373ffffffffffffffffffffffffffffffffffffffff1673ffffffffffffffffffffffffffffffffffffffff168152602001908152602001600020600084815260200190815260200160002060000160006101000a81548160ff021916908315150217905550600360006001600085815260200190815260200160002060060160009054906101000a900473ffffffffffffffffffffffffffffffffffffffff1673ffffffffffffffffffffffffffffffffffffffff1673ffffffffffffffffffffffffffffffffffffffff16815260200190815260200160002060006001600085815260200190815260200160002060050154815260200190815260200160002080548061268857fe5b6001900381819060005260206000200160006101000a81549073ffffffffffffffffffffffffffffffffffffffff02191690559055505b5b50565b828054600181600116156101000203166002900490600052602060002090601f016020900481019282601f1061270457805160ff1916838001178555612732565b82800160010185558215612732579182015b82811115612731578251825591602001919060010190612716565b5b50905061273f9190612743565b5090565b61276591905b80821115612761576000816000905550600101612749565b5090565b9056fe4120737562736372697074696f6e20706c616e20776974682074686973206e616d6520616c7265616479206578697374732c2075736520616e6f74686572206e616d65596f75722062616c616e6365206973206e6f74206c6172676520656e6f75676820746f207472616e736665722e596f7520646f206e6f74206f776e207468697320737562736372697074696f6e2e537562736372697074696f6e2062792074686174206e616d6520646f6573206e6f74206578697374a2646970667358221220ff6036cac113ce8c5546bf74b732bbb91f8200db61055fa0d9cd955a3659c33e64736f6c63430006000033",
  "source": "// SPDX-License-Identifier: hasanhenry426\r\n\r\npragma solidity >=0.6.0 <0.9.0;\r\n\r\ncontract Cryptofans{\r\n\r\n\r\n uint constant MONTH= 2628000;\r\n    uint constant YEAR_IN_SECONDS = 31536000;\r\n    \r\n\r\n    struct Subscriber {\r\n        address addy;// sub address\r\n        bool registered;\r\n        uint256 start;\r\n    }\r\n\r\n    mapping(address => Subscriber) subscribers;//subscriber's address to each individual Sub struct\r\n    mapping(bytes32=>Proposal) proposals;//All existing proposals= key:name val:proposal struct  \r\n    mapping(address => Provider) providers;//providers' addresses to an individual provider struct  \r\n    mapping(address=>mapping(uint=>address[])) sub_ids;//provider's address to key to list of subscribers\r\n    mapping(address=>mapping(bytes32=>subPlan)) info_by_prop;//Subs' address mapped to a proposal name mapped to a subscribers' plan \r\n    struct Provider{\r\n        address add;\r\n        bool registered; \r\n        uint numproposal;\r\n    }\r\n\r\n    struct subPlan{\r\n        bool in_use;\r\n        uint256 next_payday;\r\n        uint256 start_payday;\r\n    }\r\n    \r\n    struct Proposal { \r\n        bytes32 name;   //(?) short name (up to 32 bytes) X \r\n        //uint idvalue ;\r\n        uint cost;\r\n        uint256 period;// (   billed cycle in days )\r\n        bool active; // active or not\r\n        bool name_taken;\r\n        string description;\r\n        //mapping(uint256 => address[]) ;\r\n        uint key;//-> act like a hash \r\n        address creator; \r\n    }\r\n    //0xC5Bdf71E29E4E4e3dEA87568CBd8503A2418f958\r\n    function registerasSubscriber () public {\r\n        // if statement to check if they already registered\r\n        // nested mapping goes here??\r\n        if (subscribers[msg.sender].registered == true){\r\n\r\n            revert(\"You are already registered\");\r\n\r\n            // change revert function to whatever necessary if it doesnt work\r\n        }\r\n        else{\r\n            subscribers[msg.sender].registered = true;\r\n            subscribers[msg.sender].addy = msg.sender;\r\n        }\r\n\r\n    }\r\n    \r\n    function registerasProvider () public {\r\n        // if statement to check if ti exists\r\n        if (providers[msg.sender].registered == true){\r\n\r\n            revert(\"You are already registered\");\r\n\r\n            // change revert function to whatever necessary if it doesnt work\r\n        }else {\r\n            providers[msg.sender].registered = true;\r\n            providers[msg.sender].add = msg.sender;\r\n        }\r\n\r\n\r\n\r\n    }\r\n\r\n    modifier onlyProvider(){ //modifier provider\r\n        require(providers[msg.sender].registered == true) ;\r\n        _;\r\n    }\r\n\r\n    // Modifier subascriber\r\n    modifier onlySubscriber(){\r\n        require(subscribers[msg.sender].registered == true) ;\r\n        _;\r\n    }\r\n    \r\n    function createSubscription(bytes32 name, uint cost, uint period, string memory description) onlyProvider public {\r\n        //  if statement to check that proposal by this mname does not exist\r\n        if (proposals[name].name_taken == true){\r\n            \r\n            revert(\"A subscription plan with this name already exists, use another name\");\r\n        }\r\n        if(proposals[name].name!=0x0000000000000000000000000000000000000000000000000000000000000000){\r\n            revert(\"not a valid address\");\r\n        }\r\n        if ((period != MONTH && period != YEAR_IN_SECONDS) ){\r\n         \r\n            revert(\"Must be monthly or yearly\");\r\n        }\r\n        uint key_num = 0; // index 0 proposal 1\r\n        if (providers[msg.sender].numproposal >= 1){ // if greater than 1 proposal\r\n\r\n            key_num = providers[msg.sender].numproposal; // index of latest proposal\r\n        }\r\n        providers[msg.sender].numproposal = providers[msg.sender].numproposal + 1; // proposal count begins at 1\r\n        proposals[name] = Proposal(name, cost, period, true, true, description, key_num, msg.sender); // registers proposal\r\n        proposals[name].active = true ; // turns on activity \r\n    }\r\n\r\n    //warn subscribers they are about to purchase subscription(proposal)\r\n    function pay(bytes32 prop_h) public payable onlySubscriber{\r\n        if(block.timestamp < info_by_prop[msg.sender][prop_h].next_payday){\r\n            revert(\"Payment up to date.\");\r\n            \r\n        }else{ \r\n            address payable payable_creator=payable(proposals[prop_h].creator);\r\n            payable_creator.transfer(proposals[prop_h].cost);\r\n            info_by_prop[msg.sender][prop_h].next_payday= info_by_prop[msg.sender][prop_h].next_payday+ proposals[prop_h].period;\r\n        }\r\n    }\r\n    \r\n    function collect(address newholder, uint256 amount) public payable onlyProvider{\r\n       if(msg.sender.balance<1){\r\n            revert(\"Your balance is not large enough to transfer.\");\r\n       }else{\r\n        address payable newowner = payable(newholder);\r\n        (newowner).transfer(amount);\r\n       }\r\n    }\r\n\r\n    function sub_to_plan(bytes32 prop_h) public payable onlySubscriber{\r\n        if(info_by_prop[msg.sender][prop_h].in_use == true){\r\n            revert(\"you are already subscribed.\");\r\n        }\r\n        info_by_prop[msg.sender][prop_h]=subPlan(true, block.timestamp,block.timestamp);\r\n        info_by_prop[msg.sender][prop_h].next_payday = block.timestamp;\r\n        info_by_prop[msg.sender][prop_h].in_use = true;\r\n        pay(prop_h);\r\n        sub_ids[proposals[prop_h].creator][proposals[prop_h].key].push(subscribers[msg.sender].addy);\r\n        //dependent of view subs functon\r\n        //^^^Increment both keys and provider counts when supporting multiple proposals\r\n    }\r\n   \r\n    // address 1 = bytes32\"netflix\" with key 0, \"youtube\" w key 1\r\n    // address 2 = bytes32\"netflix\" with key 0, \"hulu\" w key 1  \r\n\r\n    function unsub_to_plan(bytes32 prop_h) public onlySubscriber{\r\n        if(info_by_prop[msg.sender][prop_h].in_use == false){\r\n            revert();\r\n        }else if(sub_ids[proposals[prop_h].creator][proposals[prop_h].key].length==1){\r\n            info_by_prop[msg.sender][prop_h].in_use = false;\r\n            sub_ids[proposals[prop_h].creator][proposals[prop_h].key].pop();\r\n        }else if(sub_ids[proposals[prop_h].creator][proposals[prop_h].key][sub_ids[proposals[prop_h].creator][proposals[prop_h].key].length-1]==msg.sender){\r\n                info_by_prop[msg.sender][prop_h].in_use = false;\r\n                sub_ids[proposals[prop_h].creator][proposals[prop_h].key].pop();\r\n        }else {\r\n        uint index; \r\n        for(uint i=0;i<sub_ids[proposals[prop_h].creator][proposals[prop_h].key].length;i++){\r\n            if(sub_ids[proposals[prop_h].creator][proposals[prop_h].key][i]==msg.sender){\r\n                index=i;\r\n                break;\r\n            }\r\n        }\r\n        for (uint j = index; j<sub_ids[proposals[prop_h].creator][proposals[prop_h].key].length-1; j++){\r\n            sub_ids[proposals[prop_h].creator][proposals[prop_h].key][j] = sub_ids[proposals[prop_h].creator][proposals[prop_h].key][j+1];\r\n        }\r\n        info_by_prop[msg.sender][prop_h].in_use = false;\r\n        sub_ids[proposals[prop_h].creator][proposals[prop_h].key].pop();\r\n        }\r\n    }\r\n\r\n    function findSubscription (bytes32 searchName) public view returns (bytes32,uint, uint,string memory) {\r\n        if (proposals[searchName].active == true){\r\n            return (proposals[searchName].name,proposals[searchName].cost,proposals[searchName].period, proposals[searchName].description) ;\r\n        }\r\n        else{\r\n            revert(\"Subscription by that name does not exist\") ; \r\n        }\r\n    }\r\n\r\n    function on_off_switch(bytes32 prop_h) public onlyProvider{\r\n        if(msg.sender!=proposals[prop_h].creator){\r\n            revert();\r\n        }else if(msg.sender==proposals[prop_h].creator){\r\n            proposals[prop_h].active=!proposals[prop_h].active;\r\n        }\r\n    }\r\n\r\n    function view_subs(bytes32 prop_h) onlyProvider public view returns (address[] memory) {\r\n        if(msg.sender!=proposals[prop_h].creator){\r\n            revert(\"You do not own this subscription.\");\r\n        }\r\n        return sub_ids[proposals[prop_h].creator][proposals[prop_h].key];\r\n        \r\n    }\r\n\r\n    function accessSubscscription(bytes32 prop_h) public payable onlySubscriber returns(bool){\r\n        if(info_by_prop[msg.sender][prop_h].in_use == false){\r\n            return false;\r\n        }\r\n        if (block.timestamp < info_by_prop[msg.sender][prop_h].next_payday){\r\n            return true;\r\n        }\r\n        if(block.timestamp >= info_by_prop[msg.sender][prop_h].next_payday){\r\n            while(block.timestamp > info_by_prop[msg.sender][prop_h].next_payday){\r\n                pay(prop_h);\r\n            }\r\n            return true;\r\n        }\r\n        else{\r\n            return false;\r\n        }\r\n        \r\n    }\r\n\r\n}",
  "sourcePath": "C:\\Users\\hchou\\Desktop\\V4Cryptofans-Dapp\\Cryptofans-Dapp-V4\\Cryptofans-Dapp\\cryptofans-contract\\contracts\\Cryptofans.sol",
  "compiler": {
    "name": "solc",
    "version": "0.6.0+commit.26b70077.Emscripten.clang"
  },
  "schemaVersion": "3.0.23",
  "updatedAt": "2022-05-03T23:16:41.441Z",
  "networkType": "ethereum",
  "devdoc": {
    "methods": {}
  },
  "userdoc": {
    "methods": {}
  }
}