{
  "contractName": "Cryptofans",
  "abi": [
    {
      "anonymous": false,
      "inputs": [
        {
          "indexed": true,
          "internalType": "address",
          "name": "owner",
          "type": "address"
        },
        {
          "indexed": true,
          "internalType": "address",
          "name": "spender",
          "type": "address"
        },
        {
          "indexed": false,
          "internalType": "uint256",
          "name": "value",
          "type": "uint256"
        }
      ],
      "name": "Approval",
      "type": "event"
    },
    {
      "anonymous": false,
      "inputs": [
        {
          "indexed": true,
          "internalType": "address",
          "name": "from",
          "type": "address"
        },
        {
          "indexed": true,
          "internalType": "address",
          "name": "to",
          "type": "address"
        },
        {
          "indexed": false,
          "internalType": "uint256",
          "name": "value",
          "type": "uint256"
        }
      ],
      "name": "Transfer",
      "type": "event"
    },
    {
      "inputs": [],
      "name": "decimals",
      "outputs": [
        {
          "internalType": "uint8",
          "name": "",
          "type": "uint8"
        }
      ],
      "stateMutability": "view",
      "type": "function",
      "constant": true
    },
    {
      "inputs": [],
      "name": "name",
      "outputs": [
        {
          "internalType": "string",
          "name": "",
          "type": "string"
        }
      ],
      "stateMutability": "view",
      "type": "function",
      "constant": true
    },
    {
      "inputs": [],
      "name": "symbol",
      "outputs": [
        {
          "internalType": "string",
          "name": "",
          "type": "string"
        }
      ],
      "stateMutability": "view",
      "type": "function",
      "constant": true
    },
    {
      "inputs": [],
      "name": "totalSupply",
      "outputs": [
        {
          "internalType": "uint256",
          "name": "",
          "type": "uint256"
        }
      ],
      "stateMutability": "view",
      "type": "function",
      "constant": true
    },
    {
      "inputs": [
        {
          "internalType": "address",
          "name": "tokenOwner",
          "type": "address"
        }
      ],
      "name": "balanceOf",
      "outputs": [
        {
          "internalType": "uint256",
          "name": "",
          "type": "uint256"
        }
      ],
      "stateMutability": "view",
      "type": "function",
      "constant": true
    },
    {
      "inputs": [],
      "name": "checkbalanceOf",
      "outputs": [
        {
          "internalType": "uint256",
          "name": "",
          "type": "uint256"
        }
      ],
      "stateMutability": "view",
      "type": "function",
      "constant": true
    },
    {
      "inputs": [
        {
          "internalType": "address",
          "name": "receiver",
          "type": "address"
        },
        {
          "internalType": "uint256",
          "name": "numTokens",
          "type": "uint256"
        }
      ],
      "name": "transfer",
      "outputs": [
        {
          "internalType": "bool",
          "name": "",
          "type": "bool"
        }
      ],
      "stateMutability": "nonpayable",
      "type": "function"
    },
    {
      "inputs": [
        {
          "internalType": "address",
          "name": "delegate",
          "type": "address"
        },
        {
          "internalType": "uint256",
          "name": "numTokens",
          "type": "uint256"
        }
      ],
      "name": "approve",
      "outputs": [
        {
          "internalType": "bool",
          "name": "",
          "type": "bool"
        }
      ],
      "stateMutability": "nonpayable",
      "type": "function"
    },
    {
      "inputs": [
        {
          "internalType": "address",
          "name": "owner",
          "type": "address"
        },
        {
          "internalType": "address",
          "name": "delegate",
          "type": "address"
        }
      ],
      "name": "allowance",
      "outputs": [
        {
          "internalType": "uint256",
          "name": "",
          "type": "uint256"
        }
      ],
      "stateMutability": "view",
      "type": "function",
      "constant": true
    },
    {
      "inputs": [
        {
          "internalType": "address",
          "name": "owner",
          "type": "address"
        },
        {
          "internalType": "address",
          "name": "buyer",
          "type": "address"
        },
        {
          "internalType": "uint256",
          "name": "numTokens",
          "type": "uint256"
        }
      ],
      "name": "transferFrom",
      "outputs": [
        {
          "internalType": "bool",
          "name": "",
          "type": "bool"
        }
      ],
      "stateMutability": "nonpayable",
      "type": "function"
    },
    {
      "inputs": [],
      "name": "registerasSubscriber",
      "outputs": [],
      "stateMutability": "nonpayable",
      "type": "function"
    },
    {
      "inputs": [],
      "name": "registerasProvider",
      "outputs": [],
      "stateMutability": "nonpayable",
      "type": "function"
    },
    {
      "inputs": [
        {
          "internalType": "bytes32",
          "name": "cname",
          "type": "bytes32"
        },
        {
          "internalType": "uint256",
          "name": "cost",
          "type": "uint256"
        },
        {
          "internalType": "uint256",
          "name": "period",
          "type": "uint256"
        },
        {
          "internalType": "string",
          "name": "description",
          "type": "string"
        }
      ],
      "name": "createSubscription",
      "outputs": [],
      "stateMutability": "nonpayable",
      "type": "function"
    },
    {
      "inputs": [
        {
          "internalType": "bytes32",
          "name": "prop_h",
          "type": "bytes32"
        }
      ],
      "name": "pay",
      "outputs": [],
      "stateMutability": "payable",
      "type": "function",
      "payable": true
    },
    {
      "inputs": [
        {
          "internalType": "address",
          "name": "newholder",
          "type": "address"
        },
        {
          "internalType": "uint256",
          "name": "amount",
          "type": "uint256"
        }
      ],
      "name": "collect",
      "outputs": [],
      "stateMutability": "payable",
      "type": "function",
      "payable": true
    },
    {
      "inputs": [
        {
          "internalType": "bytes32",
          "name": "prop_h",
          "type": "bytes32"
        }
      ],
      "name": "sub_to_plan",
      "outputs": [],
      "stateMutability": "payable",
      "type": "function",
      "payable": true
    },
    {
      "inputs": [
        {
          "internalType": "bytes32",
          "name": "prop_h",
          "type": "bytes32"
        }
      ],
      "name": "unsub_to_plan",
      "outputs": [],
      "stateMutability": "nonpayable",
      "type": "function"
    },
    {
      "inputs": [
        {
          "internalType": "bytes32",
          "name": "searchName",
          "type": "bytes32"
        }
      ],
      "name": "findSubscription",
      "outputs": [
        {
          "internalType": "bytes32",
          "name": "",
          "type": "bytes32"
        },
        {
          "internalType": "uint256",
          "name": "",
          "type": "uint256"
        },
        {
          "internalType": "uint256",
          "name": "",
          "type": "uint256"
        },
        {
          "internalType": "string",
          "name": "",
          "type": "string"
        }
      ],
      "stateMutability": "view",
      "type": "function",
      "constant": true
    },
    {
      "inputs": [
        {
          "internalType": "bytes32",
          "name": "prop_h",
          "type": "bytes32"
        }
      ],
      "name": "on_off_switch",
      "outputs": [],
      "stateMutability": "nonpayable",
      "type": "function"
    },
    {
      "inputs": [
        {
          "internalType": "bytes32",
          "name": "prop_h",
          "type": "bytes32"
        }
      ],
      "name": "view_subs",
      "outputs": [
        {
          "internalType": "address[]",
          "name": "",
          "type": "address[]"
        }
      ],
      "stateMutability": "view",
      "type": "function",
      "constant": true
    },
    {
      "inputs": [
        {
          "internalType": "bytes32",
          "name": "prop_h",
          "type": "bytes32"
        }
      ],
      "name": "accessSubscscription",
      "outputs": [
        {
          "internalType": "bool",
          "name": "",
          "type": "bool"
        }
      ],
      "stateMutability": "payable",
      "type": "function",
      "payable": true
    }
  ],
  "bytecode": "0x6080604052678ac7230489e80000600755670de0b6b3a764000060085534801561002857600080fd5b506139b6806100386000396000f3fe60806040526004361061012a5760003560e01c80634d368a79116100ab57806395d89b411161006f57806395d89b41146106f0578063a9059cbb14610780578063b8fbf859146107f3578063c200312314610821578063dd62ed3e1461085c578063f960f8de146108e15761012a565b80634d368a79146104e35780636b8357ac146105c957806370a0823114610617578063717baab71461067c5780638609cad1146106c25761012a565b806318160ddd116100f257806318160ddd1461032957806323b872dd1461035457806327e69c45146103e7578063313ce56714610477578063327e2e4c146104a85761012a565b806306fdde031461012f578063095ea7b3146101bf5780630daf9687146102325780630ecea00d146102495780631708991814610260575b600080fd5b34801561013b57600080fd5b5061014461090c565b6040518080602001828103825283818151815260200191508051906020019080838360005b83811015610184578082015181840152602081019050610169565b50505050905090810190601f1680156101b15780820380516001836020036101000a031916815260200191505b509250505060405180910390f35b3480156101cb57600080fd5b50610218600480360360408110156101e257600080fd5b81019080803573ffffffffffffffffffffffffffffffffffffffff16906020019092919080359060200190929190505050610945565b604051808215151515815260200191505060405180910390f35b34801561023e57600080fd5b50610247610a37565b005b34801561025557600080fd5b5061025e610be7565b005b34801561026c57600080fd5b506102996004803603602081101561028357600080fd5b8101908080359060200190929190505050610d94565b6040518085815260200184815260200183815260200180602001828103825283818151815260200191508051906020019080838360005b838110156102eb5780820151818401526020810190506102d0565b50505050905090810190601f1680156103185780820380516001836020036101000a031916815260200191505b509550505050505060405180910390f35b34801561033557600080fd5b5061033e610f27565b6040518082815260200191505060405180910390f35b34801561036057600080fd5b506103cd6004803603606081101561037757600080fd5b81019080803573ffffffffffffffffffffffffffffffffffffffff169060200190929190803573ffffffffffffffffffffffffffffffffffffffff16906020019092919080359060200190929190505050610f31565b604051808215151515815260200191505060405180910390f35b3480156103f357600080fd5b506104206004803603602081101561040a57600080fd5b8101908080359060200190929190505050611281565b6040518080602001828103825283818151815260200191508051906020019060200280838360005b83811015610463578082015181840152602081019050610448565b505050509050019250505060405180910390f35b34801561048357600080fd5b5061048c6114c5565b604051808260ff1660ff16815260200191505060405180910390f35b3480156104b457600080fd5b506104e1600480360360208110156104cb57600080fd5b81019080803590602001909291905050506114ca565b005b3480156104ef57600080fd5b506105c76004803603608081101561050657600080fd5b810190808035906020019092919080359060200190929190803590602001909291908035906020019064010000000081111561054157600080fd5b82018360208201111561055357600080fd5b8035906020019184600183028401116401000000008311171561057557600080fd5b91908080601f016020809104026020016040519081016040528093929190818152602001838380828437600081840152601f19601f820116905080830192505050505050509192919290505050611658565b005b610615600480360360408110156105df57600080fd5b81019080803573ffffffffffffffffffffffffffffffffffffffff16906020019092919080359060200190929190505050611ad7565b005b34801561062357600080fd5b506106666004803603602081101561063a57600080fd5b81019080803573ffffffffffffffffffffffffffffffffffffffff169060200190929190505050611bf9565b6040518082815260200191505060405180910390f35b6106a86004803603602081101561069257600080fd5b8101908080359060200190929190505050611c42565b604051808215151515815260200191505060405180910390f35b6106ee600480360360208110156106d857600080fd5b8101908080359060200190929190505050611e54565b005b3480156106fc57600080fd5b506107056120db565b6040518080602001828103825283818151815260200191508051906020019080838360005b8381101561074557808201518184015260208101905061072a565b50505050905090810190601f1680156107725780820380516001836020036101000a031916815260200191505b509250505060405180910390f35b34801561078c57600080fd5b506107d9600480360360408110156107a357600080fd5b81019080803573ffffffffffffffffffffffffffffffffffffffff16906020019092919080359060200190929190505050612114565b604051808215151515815260200191505060405180910390f35b61081f6004803603602081101561080957600080fd5b81019080803590602001909291905050506122db565b005b34801561082d57600080fd5b5061085a6004803603602081101561084457600080fd5b8101908080359060200190929190505050612807565b005b34801561086857600080fd5b506108cb6004803603604081101561087f57600080fd5b81019080803573ffffffffffffffffffffffffffffffffffffffff169060200190929190803573ffffffffffffffffffffffffffffffffffffffff169060200190929190505050613355565b6040518082815260200191505060405180910390f35b3480156108ed57600080fd5b506108f66133dc565b6040518082815260200191505060405180910390f35b6040518060400160405280600781526020017f537562436f696e0000000000000000000000000000000000000000000000000081525081565b600081600660003373ffffffffffffffffffffffffffffffffffffffff1673ffffffffffffffffffffffffffffffffffffffff16815260200190815260200160002060008573ffffffffffffffffffffffffffffffffffffffff1673ffffffffffffffffffffffffffffffffffffffff168152602001908152602001600020819055508273ffffffffffffffffffffffffffffffffffffffff163373ffffffffffffffffffffffffffffffffffffffff167f8c5be1e5ebec7d5bd14f71427d1e84f3dd0314c0f7b2291e5b200ac8c7c3b925846040518082815260200191505060405180910390a36001905092915050565b60011515600260003373ffffffffffffffffffffffffffffffffffffffff1673ffffffffffffffffffffffffffffffffffffffff16815260200190815260200160002060000160149054906101000a900460ff1615151415610b01576040517f08c379a000000000000000000000000000000000000000000000000000000000815260040180806020018281038252601a8152602001807f596f752061726520616c7265616479207265676973746572656400000000000081525060200191505060405180910390fd5b610b0961352d565b6001600260003373ffffffffffffffffffffffffffffffffffffffff1673ffffffffffffffffffffffffffffffffffffffff16815260200190815260200160002060000160146101000a81548160ff02191690831515021790555033600260003373ffffffffffffffffffffffffffffffffffffffff1673ffffffffffffffffffffffffffffffffffffffff16815260200190815260200160002060000160006101000a81548173ffffffffffffffffffffffffffffffffffffffff021916908373ffffffffffffffffffffffffffffffffffffffff160217905550565b600115156000803373ffffffffffffffffffffffffffffffffffffffff1673ffffffffffffffffffffffffffffffffffffffff16815260200190815260200160002060000160149054906101000a900460ff1615151415610cb0576040517f08c379a000000000000000000000000000000000000000000000000000000000815260040180806020018281038252601a8152602001807f596f752061726520616c7265616479207265676973746572656400000000000081525060200191505060405180910390fd5b610cb8613684565b60016000803373ffffffffffffffffffffffffffffffffffffffff1673ffffffffffffffffffffffffffffffffffffffff16815260200190815260200160002060000160146101000a81548160ff021916908315150217905550336000803373ffffffffffffffffffffffffffffffffffffffff1673ffffffffffffffffffffffffffffffffffffffff16815260200190815260200160002060000160006101000a81548173ffffffffffffffffffffffffffffffffffffffff021916908373ffffffffffffffffffffffffffffffffffffffff160217905550565b60008060006060600115156001600087815260200190815260200160002060030160009054906101000a900460ff1615151415610ecf5760016000868152602001908152602001600020600001546001600087815260200190815260200160002060010154600160008881526020019081526020016000206002015460016000898152602001908152602001600020600401808054600181600116156101000203166002900480601f016020809104026020016040519081016040528092919081815260200182805460018160011615610100020316600290048015610ebb5780601f10610e9057610100808354040283529160200191610ebb565b820191906000526020600020905b815481529060010190602001808311610e9e57829003601f168201915b505050505090509350935093509350610f20565b6040517f08c379a00000000000000000000000000000000000000000000000000000000081526004018080602001828103825260288152602001806139596028913960400191505060405180910390fd5b9193509193565b6000600754905090565b6000600560008573ffffffffffffffffffffffffffffffffffffffff1673ffffffffffffffffffffffffffffffffffffffff16815260200190815260200160002054821115610f7f57600080fd5b600660008573ffffffffffffffffffffffffffffffffffffffff1673ffffffffffffffffffffffffffffffffffffffff16815260200190815260200160002060003373ffffffffffffffffffffffffffffffffffffffff1673ffffffffffffffffffffffffffffffffffffffff1681526020019081526020016000205482111561100857600080fd5b81600560008673ffffffffffffffffffffffffffffffffffffffff1673ffffffffffffffffffffffffffffffffffffffff1681526020019081526020016000205403600560008673ffffffffffffffffffffffffffffffffffffffff1673ffffffffffffffffffffffffffffffffffffffff1681526020019081526020016000208190555081600660008673ffffffffffffffffffffffffffffffffffffffff1673ffffffffffffffffffffffffffffffffffffffff16815260200190815260200160002060003373ffffffffffffffffffffffffffffffffffffffff1673ffffffffffffffffffffffffffffffffffffffff1681526020019081526020016000205403600660008673ffffffffffffffffffffffffffffffffffffffff1673ffffffffffffffffffffffffffffffffffffffff16815260200190815260200160002060003373ffffffffffffffffffffffffffffffffffffffff1673ffffffffffffffffffffffffffffffffffffffff1681526020019081526020016000208190555081600560008573ffffffffffffffffffffffffffffffffffffffff1673ffffffffffffffffffffffffffffffffffffffff1681526020019081526020016000205401600560008573ffffffffffffffffffffffffffffffffffffffff1673ffffffffffffffffffffffffffffffffffffffff168152602001908152602001600020819055508273ffffffffffffffffffffffffffffffffffffffff168473ffffffffffffffffffffffffffffffffffffffff167fddf252ad1be2c89b69c2b068fc378daa952ba7f163c4a11628f55a4df523b3ef846040518082815260200191505060405180910390a3600190509392505050565b606060011515600260003373ffffffffffffffffffffffffffffffffffffffff1673ffffffffffffffffffffffffffffffffffffffff16815260200190815260200160002060000160149054906101000a900460ff161515146112e357600080fd5b6001600083815260200190815260200160002060060160009054906101000a900473ffffffffffffffffffffffffffffffffffffffff1673ffffffffffffffffffffffffffffffffffffffff163373ffffffffffffffffffffffffffffffffffffffff161461139d576040517f08c379a00000000000000000000000000000000000000000000000000000000081526004018080602001828103825260218152602001806139386021913960400191505060405180910390fd5b600360006001600085815260200190815260200160002060060160009054906101000a900473ffffffffffffffffffffffffffffffffffffffff1673ffffffffffffffffffffffffffffffffffffffff1673ffffffffffffffffffffffffffffffffffffffff1681526020019081526020016000206000600160008581526020019081526020016000206005015481526020019081526020016000208054806020026020016040519081016040528092919081815260200182805480156114b957602002820191906000526020600020905b8160009054906101000a900473ffffffffffffffffffffffffffffffffffffffff1673ffffffffffffffffffffffffffffffffffffffff168152602001906001019080831161146f575b50505050509050919050565b601281565b60011515600260003373ffffffffffffffffffffffffffffffffffffffff1673ffffffffffffffffffffffffffffffffffffffff16815260200190815260200160002060000160149054906101000a900460ff1615151461152a57600080fd5b6001600082815260200190815260200160002060060160009054906101000a900473ffffffffffffffffffffffffffffffffffffffff1673ffffffffffffffffffffffffffffffffffffffff163373ffffffffffffffffffffffffffffffffffffffff161461159857600080fd5b6001600082815260200190815260200160002060060160009054906101000a900473ffffffffffffffffffffffffffffffffffffffff1673ffffffffffffffffffffffffffffffffffffffff163373ffffffffffffffffffffffffffffffffffffffff161415611655576001600082815260200190815260200160002060030160009054906101000a900460ff16156001600083815260200190815260200160002060030160006101000a81548160ff0219169083151502179055505b50565b60011515600260003373ffffffffffffffffffffffffffffffffffffffff1673ffffffffffffffffffffffffffffffffffffffff16815260200190815260200160002060000160149054906101000a900460ff161515146116b857600080fd5b6000801b8414806116cb57506000801b84145b1561173e576040517f08c379a00000000000000000000000000000000000000000000000000000000081526004018080602001828103825260138152602001807f6e6f7420612076616c696420616464726573730000000000000000000000000081525060200191505060405180910390fd5b600115156001600086815260200190815260200160002060030160019054906101000a900460ff16151514156117bf576040517f08c379a00000000000000000000000000000000000000000000000000000000081526004018080602001828103825260438152602001806138a36043913960600191505060405180910390fd5b622819a082141580156117d657506301e133808214155b15611849576040517f08c379a00000000000000000000000000000000000000000000000000000000081526004018080602001828103825260198152602001807f4d757374206265206d6f6e74686c79206f7220796561726c790000000000000081525060200191505060405180910390fd5b60008090506001600260003373ffffffffffffffffffffffffffffffffffffffff1673ffffffffffffffffffffffffffffffffffffffff16815260200190815260200160002060010154106118de57600260003373ffffffffffffffffffffffffffffffffffffffff1673ffffffffffffffffffffffffffffffffffffffff1681526020019081526020016000206001015490505b6001600260003373ffffffffffffffffffffffffffffffffffffffff1673ffffffffffffffffffffffffffffffffffffffff1681526020019081526020016000206001015401600260003373ffffffffffffffffffffffffffffffffffffffff1673ffffffffffffffffffffffffffffffffffffffff168152602001908152602001600020600101819055506040518061010001604052808681526020018581526020018481526020016001151581526020016001151581526020018381526020018281526020013373ffffffffffffffffffffffffffffffffffffffff168152506001600087815260200190815260200160002060008201518160000155602082015181600101556040820151816002015560608201518160030160006101000a81548160ff02191690831515021790555060808201518160030160016101000a81548160ff02191690831515021790555060a0820151816004019080519060200190611a4d9291906137db565b5060c0820151816005015560e08201518160060160006101000a81548173ffffffffffffffffffffffffffffffffffffffff021916908373ffffffffffffffffffffffffffffffffffffffff160217905550905050600180600087815260200190815260200160002060030160006101000a81548160ff0219169083151502179055505050505050565b60011515600260003373ffffffffffffffffffffffffffffffffffffffff1673ffffffffffffffffffffffffffffffffffffffff16815260200190815260200160002060000160149054906101000a900460ff16151514611b3757600080fd5b60013373ffffffffffffffffffffffffffffffffffffffff16311015611ba8576040517f08c379a000000000000000000000000000000000000000000000000000000000815260040180806020018281038252602d8152602001806138e6602d913960400191505060405180910390fd5b60008290508073ffffffffffffffffffffffffffffffffffffffff166108fc839081150290604051600060405180830381858888f19350505050158015611bf3573d6000803e3d6000fd5b50505050565b6000600560008373ffffffffffffffffffffffffffffffffffffffff1673ffffffffffffffffffffffffffffffffffffffff168152602001908152602001600020549050919050565b6000600115156000803373ffffffffffffffffffffffffffffffffffffffff1673ffffffffffffffffffffffffffffffffffffffff16815260200190815260200160002060000160149054906101000a900460ff16151514611ca357600080fd5b60001515600460003373ffffffffffffffffffffffffffffffffffffffff1673ffffffffffffffffffffffffffffffffffffffff168152602001908152602001600020600084815260200190815260200160002060000160009054906101000a900460ff1615151415611d195760009050611e4f565b600460003373ffffffffffffffffffffffffffffffffffffffff1673ffffffffffffffffffffffffffffffffffffffff168152602001908152602001600020600083815260200190815260200160002060010154421015611d7d5760019050611e4f565b600460003373ffffffffffffffffffffffffffffffffffffffff1673ffffffffffffffffffffffffffffffffffffffff1681526020019081526020016000206000838152602001908152602001600020600101544210611e4a575b600460003373ffffffffffffffffffffffffffffffffffffffff1673ffffffffffffffffffffffffffffffffffffffff168152602001908152602001600020600083815260200190815260200160002060010154421115611e4157611e3c82611e54565b611dd8565b60019050611e4f565b600090505b919050565b600115156000803373ffffffffffffffffffffffffffffffffffffffff1673ffffffffffffffffffffffffffffffffffffffff16815260200190815260200160002060000160149054906101000a900460ff16151514611eb357600080fd5b600460003373ffffffffffffffffffffffffffffffffffffffff1673ffffffffffffffffffffffffffffffffffffffff168152602001908152602001600020600082815260200190815260200160002060010154421015611f7c576040517f08c379a00000000000000000000000000000000000000000000000000000000081526004018080602001828103825260138152602001807f5061796d656e7420757020746f20646174652e0000000000000000000000000081525060200191505060405180910390fd5b60006001600083815260200190815260200160002060060160009054906101000a900473ffffffffffffffffffffffffffffffffffffffff1690508073ffffffffffffffffffffffffffffffffffffffff166108fc60016000858152602001908152602001600020600101549081150290604051600060405180830381858888f19350505050158015612013573d6000803e3d6000fd5b506001600083815260200190815260200160002060020154600460003373ffffffffffffffffffffffffffffffffffffffff1673ffffffffffffffffffffffffffffffffffffffff16815260200190815260200160002060008481526020019081526020016000206001015401600460003373ffffffffffffffffffffffffffffffffffffffff1673ffffffffffffffffffffffffffffffffffffffff1681526020019081526020016000206000848152602001908152602001600020600101819055505050565b6040518060400160405280600381526020017f534243000000000000000000000000000000000000000000000000000000000081525081565b6000600560003373ffffffffffffffffffffffffffffffffffffffff1673ffffffffffffffffffffffffffffffffffffffff1681526020019081526020016000205482111561216257600080fd5b81600560003373ffffffffffffffffffffffffffffffffffffffff1673ffffffffffffffffffffffffffffffffffffffff1681526020019081526020016000205403600560003373ffffffffffffffffffffffffffffffffffffffff1673ffffffffffffffffffffffffffffffffffffffff1681526020019081526020016000208190555081600560008573ffffffffffffffffffffffffffffffffffffffff1673ffffffffffffffffffffffffffffffffffffffff1681526020019081526020016000205401600560008573ffffffffffffffffffffffffffffffffffffffff1673ffffffffffffffffffffffffffffffffffffffff168152602001908152602001600020819055508273ffffffffffffffffffffffffffffffffffffffff163373ffffffffffffffffffffffffffffffffffffffff167fddf252ad1be2c89b69c2b068fc378daa952ba7f163c4a11628f55a4df523b3ef846040518082815260200191505060405180910390a36001905092915050565b600115156000803373ffffffffffffffffffffffffffffffffffffffff1673ffffffffffffffffffffffffffffffffffffffff16815260200190815260200160002060000160149054906101000a900460ff1615151461233a57600080fd5b600015156001600083815260200190815260200160002060030160019054906101000a900460ff16151514156123bb576040517f08c379a00000000000000000000000000000000000000000000000000000000081526004018080602001828103825260258152602001806139136025913960400191505060405180910390fd5b600015156001600083815260200190815260200160002060030160009054906101000a900460ff1615151415612459576040517f08c379a000000000000000000000000000000000000000000000000000000000815260040180806020018281038252601f8152602001807f7468697320737562736372697074696f6e206973206e6f74206163746976650081525060200191505060405180910390fd5b60011515600460003373ffffffffffffffffffffffffffffffffffffffff1673ffffffffffffffffffffffffffffffffffffffff168152602001908152602001600020600083815260200190815260200160002060000160009054906101000a900460ff1615151415612534576040517f08c379a000000000000000000000000000000000000000000000000000000000815260040180806020018281038252601b8152602001807f796f752061726520616c726561647920737562736372696265642e000000000081525060200191505060405180910390fd5b604051806060016040528060011515815260200142815260200142815250600460003373ffffffffffffffffffffffffffffffffffffffff1673ffffffffffffffffffffffffffffffffffffffff168152602001908152602001600020600083815260200190815260200160002060008201518160000160006101000a81548160ff021916908315150217905550602082015181600101556040820151816002015590505042600460003373ffffffffffffffffffffffffffffffffffffffff1673ffffffffffffffffffffffffffffffffffffffff1681526020019081526020016000206000838152602001908152602001600020600101819055506001600460003373ffffffffffffffffffffffffffffffffffffffff1673ffffffffffffffffffffffffffffffffffffffff168152602001908152602001600020600083815260200190815260200160002060000160006101000a81548160ff0219169083151502179055506126a681611e54565b600360006001600084815260200190815260200160002060060160009054906101000a900473ffffffffffffffffffffffffffffffffffffffff1673ffffffffffffffffffffffffffffffffffffffff1673ffffffffffffffffffffffffffffffffffffffff1681526020019081526020016000206000600160008481526020019081526020016000206005015481526020019081526020016000206000803373ffffffffffffffffffffffffffffffffffffffff1673ffffffffffffffffffffffffffffffffffffffff16815260200190815260200160002060000160009054906101000a900473ffffffffffffffffffffffffffffffffffffffff169080600181540180825580915050600190039060005260206000200160009091909190916101000a81548173ffffffffffffffffffffffffffffffffffffffff021916908373ffffffffffffffffffffffffffffffffffffffff16021790555050565b600115156000803373ffffffffffffffffffffffffffffffffffffffff1673ffffffffffffffffffffffffffffffffffffffff16815260200190815260200160002060000160149054906101000a900460ff1615151461286657600080fd5b60001515600460003373ffffffffffffffffffffffffffffffffffffffff1673ffffffffffffffffffffffffffffffffffffffff168152602001908152602001600020600083815260200190815260200160002060000160009054906101000a900460ff16151514156128d857600080fd5b6001600360006001600085815260200190815260200160002060060160009054906101000a900473ffffffffffffffffffffffffffffffffffffffff1673ffffffffffffffffffffffffffffffffffffffff1673ffffffffffffffffffffffffffffffffffffffff168152602001908152602001600020600060016000858152602001908152602001600020600501548152602001908152602001600020805490501415612acb576000600460003373ffffffffffffffffffffffffffffffffffffffff1673ffffffffffffffffffffffffffffffffffffffff168152602001908152602001600020600083815260200190815260200160002060000160006101000a81548160ff021916908315150217905550600360006001600084815260200190815260200160002060060160009054906101000a900473ffffffffffffffffffffffffffffffffffffffff1673ffffffffffffffffffffffffffffffffffffffff1673ffffffffffffffffffffffffffffffffffffffff168152602001908152602001600020600060016000848152602001908152602001600020600501548152602001908152602001600020805480612a9157fe5b6001900381819060005260206000200160006101000a81549073ffffffffffffffffffffffffffffffffffffffff02191690559055613352565b3373ffffffffffffffffffffffffffffffffffffffff16600360006001600085815260200190815260200160002060060160009054906101000a900473ffffffffffffffffffffffffffffffffffffffff1673ffffffffffffffffffffffffffffffffffffffff1673ffffffffffffffffffffffffffffffffffffffff1681526020019081526020016000206000600160008581526020019081526020016000206005015481526020019081526020016000206001600360006001600087815260200190815260200160002060060160009054906101000a900473ffffffffffffffffffffffffffffffffffffffff1673ffffffffffffffffffffffffffffffffffffffff1673ffffffffffffffffffffffffffffffffffffffff168152602001908152602001600020600060016000878152602001908152602001600020600501548152602001908152602001600020805490500381548110612c2b57fe5b9060005260206000200160009054906101000a900473ffffffffffffffffffffffffffffffffffffffff1673ffffffffffffffffffffffffffffffffffffffff161415612dbd576000600460003373ffffffffffffffffffffffffffffffffffffffff1673ffffffffffffffffffffffffffffffffffffffff168152602001908152602001600020600083815260200190815260200160002060000160006101000a81548160ff021916908315150217905550600360006001600084815260200190815260200160002060060160009054906101000a900473ffffffffffffffffffffffffffffffffffffffff1673ffffffffffffffffffffffffffffffffffffffff1673ffffffffffffffffffffffffffffffffffffffff168152602001908152602001600020600060016000848152602001908152602001600020600501548152602001908152602001600020805480612d8357fe5b6001900381819060005260206000200160006101000a81549073ffffffffffffffffffffffffffffffffffffffff02191690559055613351565b600080600090505b600360006001600086815260200190815260200160002060060160009054906101000a900473ffffffffffffffffffffffffffffffffffffffff1673ffffffffffffffffffffffffffffffffffffffff1673ffffffffffffffffffffffffffffffffffffffff16815260200190815260200160002060006001600086815260200190815260200160002060050154815260200190815260200160002080549050811015612f86573373ffffffffffffffffffffffffffffffffffffffff16600360006001600087815260200190815260200160002060060160009054906101000a900473ffffffffffffffffffffffffffffffffffffffff1673ffffffffffffffffffffffffffffffffffffffff1673ffffffffffffffffffffffffffffffffffffffff1681526020019081526020016000206000600160008781526020019081526020016000206005015481526020019081526020016000208281548110612f2a57fe5b9060005260206000200160009054906101000a900473ffffffffffffffffffffffffffffffffffffffff1673ffffffffffffffffffffffffffffffffffffffff161415612f7957809150612f86565b8080600101915050612dc5565b5060008190505b6001600360006001600087815260200190815260200160002060060160009054906101000a900473ffffffffffffffffffffffffffffffffffffffff1673ffffffffffffffffffffffffffffffffffffffff1673ffffffffffffffffffffffffffffffffffffffff168152602001908152602001600020600060016000878152602001908152602001600020600501548152602001908152602001600020805490500381101561320857600360006001600086815260200190815260200160002060060160009054906101000a900473ffffffffffffffffffffffffffffffffffffffff1673ffffffffffffffffffffffffffffffffffffffff1673ffffffffffffffffffffffffffffffffffffffff16815260200190815260200160002060006001600086815260200190815260200160002060050154815260200190815260200160002060018201815481106130e157fe5b9060005260206000200160009054906101000a900473ffffffffffffffffffffffffffffffffffffffff16600360006001600087815260200190815260200160002060060160009054906101000a900473ffffffffffffffffffffffffffffffffffffffff1673ffffffffffffffffffffffffffffffffffffffff1673ffffffffffffffffffffffffffffffffffffffff16815260200190815260200160002060006001600087815260200190815260200160002060050154815260200190815260200160002082815481106131b357fe5b9060005260206000200160006101000a81548173ffffffffffffffffffffffffffffffffffffffff021916908373ffffffffffffffffffffffffffffffffffffffff1602179055508080600101915050612f8d565b506000600460003373ffffffffffffffffffffffffffffffffffffffff1673ffffffffffffffffffffffffffffffffffffffff168152602001908152602001600020600084815260200190815260200160002060000160006101000a81548160ff021916908315150217905550600360006001600085815260200190815260200160002060060160009054906101000a900473ffffffffffffffffffffffffffffffffffffffff1673ffffffffffffffffffffffffffffffffffffffff1673ffffffffffffffffffffffffffffffffffffffff16815260200190815260200160002060006001600085815260200190815260200160002060050154815260200190815260200160002080548061331a57fe5b6001900381819060005260206000200160006101000a81549073ffffffffffffffffffffffffffffffffffffffff02191690559055505b5b50565b6000600660008473ffffffffffffffffffffffffffffffffffffffff1673ffffffffffffffffffffffffffffffffffffffff16815260200190815260200160002060008373ffffffffffffffffffffffffffffffffffffffff1673ffffffffffffffffffffffffffffffffffffffff16815260200190815260200160002054905092915050565b60008015156000803373ffffffffffffffffffffffffffffffffffffffff1673ffffffffffffffffffffffffffffffffffffffff16815260200190815260200160002060000160149054906101000a900460ff161515148015613492575060001515600260003373ffffffffffffffffffffffffffffffffffffffff1673ffffffffffffffffffffffffffffffffffffffff16815260200190815260200160002060000160149054906101000a900460ff161515145b156134e8576040517f08c379a00000000000000000000000000000000000000000000000000000000081526004018080602001828103825260228152602001806138816022913960400191505060405180910390fd5b600560003373ffffffffffffffffffffffffffffffffffffffff1673ffffffffffffffffffffffffffffffffffffffff16815260200190815260200160002054905090565b600115156000803373ffffffffffffffffffffffffffffffffffffffff1673ffffffffffffffffffffffffffffffffffffffff16815260200190815260200160002060000160149054906101000a900460ff1615151480156135e2575060001515600260003373ffffffffffffffffffffffffffffffffffffffff1673ffffffffffffffffffffffffffffffffffffffff16815260200190815260200160002060000160149054906101000a900460ff161515145b1561363b57600854600560003373ffffffffffffffffffffffffffffffffffffffff1673ffffffffffffffffffffffffffffffffffffffff16815260200190815260200160002060008282540192505081905550613682565b600854600560003373ffffffffffffffffffffffffffffffffffffffff1673ffffffffffffffffffffffffffffffffffffffff168152602001908152602001600020819055505b565b600015156000803373ffffffffffffffffffffffffffffffffffffffff1673ffffffffffffffffffffffffffffffffffffffff16815260200190815260200160002060000160149054906101000a900460ff161515148015613739575060011515600260003373ffffffffffffffffffffffffffffffffffffffff1673ffffffffffffffffffffffffffffffffffffffff16815260200190815260200160002060000160149054906101000a900460ff161515145b1561379257600754600560003373ffffffffffffffffffffffffffffffffffffffff1673ffffffffffffffffffffffffffffffffffffffff168152602001908152602001600020600082825401925050819055506137d9565b600754600560003373ffffffffffffffffffffffffffffffffffffffff1673ffffffffffffffffffffffffffffffffffffffff168152602001908152602001600020819055505b565b828054600181600116156101000203166002900490600052602060002090601f016020900481019282601f1061381c57805160ff191683800117855561384a565b8280016001018555821561384a579182015b8281111561384957825182559160200191906001019061382e565b5b509050613857919061385b565b5090565b61387d91905b80821115613879576000816000905550600101613861565b5090565b9056fe506c6561736520726567697374657220746f206861766520612062616c616e63652e4120737562736372697074696f6e20706c616e20776974682074686973206e616d6520616c7265616479206578697374732c2075736520616e6f74686572206e616d65596f75722062616c616e6365206973206e6f74206c6172676520656e6f75676820746f207472616e736665722e7468657265206973206e6f20737562736372697074696f6e206f662074686973206e616d65596f7520646f206e6f74206f776e207468697320737562736372697074696f6e2e537562736372697074696f6e2062792074686174206e616d6520646f6573206e6f74206578697374a26469706673582212206509a527cbca3c6e978a44ca804919b9d1b5544d6ecc325434d9baf97d04d28664736f6c63430006000033",
  "source": "// SPDX-License-Identifier: hasanhenry426\r\npragma solidity >=0.6.0 <=0.9.0;\r\n\r\nimport './helper_contracts/IERC20.sol';\r\n\r\ncontract Cryptofans is IERC20 {\r\n    //subscription periods\r\n    uint constant MONTH= 2628000;\r\n    uint constant YEAR_IN_SECONDS = 31536000;\r\n    //structs\r\n    struct Subscriber {\r\n        address addy;// sub address\r\n        bool registered;\r\n        uint256 start;\r\n    }\r\n    struct Provider{\r\n        address add;\r\n        bool registered; \r\n        uint numproposal;\r\n    }\r\n    struct subPlan{\r\n        bool in_use;\r\n        uint256 next_payday;\r\n        uint256 start_payday;\r\n    }\r\n    struct Proposal { \r\n        bytes32 cname;   //(?) short name (up to 32 bytes) X \r\n        uint cost;\r\n        uint256 period;// (   billed cycle in days )\r\n        bool active; // active or not\r\n        bool name_taken;\r\n        string description;\r\n        uint key;//-> act like a hash \r\n        address creator; \r\n    }\r\n    //data \r\n    mapping(address => Subscriber) subscribers;//subscriber's address to each individual Sub struct\r\n    mapping(bytes32=>Proposal) proposals;//All existing proposals= key:name val:proposal struct  \r\n    mapping(address => Provider) providers;//providers' addresses to an individual provider struct  \r\n    mapping(address=>mapping(uint=>address[])) sub_ids;//provider's address to key to list of subscribers\r\n    mapping(address=>mapping(bytes32=>subPlan)) info_by_prop;//Subs' address mapped to a proposal name mapped to a subscribers' plan \r\n    \r\n    ////ERC20 INTITIALIZE\r\n    string public constant name = \"SubCoin\";\r\n    string public constant symbol = \"SBC\";\r\n    uint8 public constant decimals = 18;\r\n\r\n\r\n    mapping(address => uint256) balances;\r\n\r\n    mapping(address => mapping (address => uint256)) allowed;\r\n\r\n    uint256 totalSupply_ = 10 ether;\r\n\r\n    uint256 ptotalSupply_ = 1 ether;\r\n\r\n\r\n   \r\n\r\n    function totalSupply() public override view returns (uint256) {\r\n    return totalSupply_;\r\n    }\r\n\r\n\r\n    function getcoins() private{\r\n        if(subscribers[msg.sender].registered == false && providers[msg.sender].registered == true){\r\n            balances[msg.sender] += totalSupply_;\r\n        }else{\r\n            balances[msg.sender] = totalSupply_;\r\n        }\r\n    }\r\n\r\n     function getcoinsprov() private{\r\n         if(subscribers[msg.sender].registered == true && providers[msg.sender].registered == false){\r\n            balances[msg.sender] += ptotalSupply_;\r\n        }else{balances[msg.sender] = ptotalSupply_;}\r\n    }\r\n\r\n    function balanceOf(address tokenOwner) public override view returns (uint256) {\r\n        return balances[tokenOwner];\r\n    }\r\n\r\n    function checkbalanceOf() public view returns (uint256) {\r\n        if(subscribers[msg.sender].registered == false && providers[msg.sender].registered == false){\r\n            revert(\"Please register to have a balance.\");\r\n        }\r\n        return balances[msg.sender];\r\n    }\r\n\r\n    \r\n\r\n    function transfer(address receiver, uint256 numTokens) public override returns (bool) {\r\n        require(numTokens <= balances[msg.sender]);\r\n        balances[msg.sender] = balances[msg.sender]-numTokens;\r\n        balances[receiver] = balances[receiver]+numTokens;\r\n        emit Transfer(msg.sender, receiver, numTokens);\r\n        return true;\r\n    }\r\n\r\n    function approve(address delegate, uint256 numTokens) public override returns (bool) {\r\n        allowed[msg.sender][delegate] = numTokens;\r\n        emit Approval(msg.sender, delegate, numTokens);\r\n        return true;\r\n    }\r\n\r\n    function allowance(address owner, address delegate) public override view returns (uint) {\r\n        return allowed[owner][delegate];\r\n    }\r\n\r\n    function transferFrom(address owner, address buyer, uint256 numTokens) public override returns (bool) {\r\n        require(numTokens <= balances[owner]);\r\n        require(numTokens <= allowed[owner][msg.sender]);\r\n\r\n        balances[owner] = balances[owner]-numTokens;\r\n        allowed[owner][msg.sender] = allowed[owner][msg.sender]-numTokens;\r\n        balances[buyer] = balances[buyer]+numTokens;\r\n        emit Transfer(owner, buyer, numTokens);\r\n        return true;\r\n    }\r\n\r\n\r\n    \r\n    ////ERC20 FUNCTIONS\r\n    //re-define:\r\n    //function transfer(address receiver, uint256 numTokens) public override returns (bool) {}\r\n    //function balanceOf(address tokenOwner) public override view returns (uint256) {}\r\n    //function approve(address delegate, uint256 numTokens) public override returns (bool) {}\r\n    //function totalSupply() external view returns (uint256){}\r\n    //function transferFrom(address sender, address recipient, uint256 amount) external returns (bool){}\r\n\r\n    //currently unused:\r\n    //function allowance(address owner, address spender) external view returns (uint256);\r\n\r\n    //events(implement):\r\n    //event Transfer(address indexed from, address indexed to, uint256 value);\r\n    //event Approval(address indexed owner, address indexed spender, uint256 value);\r\n\r\n    //////CRYPTOFANS MARKETPLACE FUNCTIONS//////\r\n    function registerasSubscriber () public {\r\n        // if statement to check if they already registered\r\n        // nested mapping goes here??\r\n        if (subscribers[msg.sender].registered == true){\r\n            revert(\"You are already registered\");\r\n            // change revert function to whatever necessary if it doesnt work\r\n        }\r\n        else{\r\n            getcoins();\r\n            subscribers[msg.sender].registered = true;\r\n            subscribers[msg.sender].addy = msg.sender;\r\n        }\r\n    }\r\n   \r\n    \r\n    function registerasProvider () public {\r\n        // if statement to check if ti exists\r\n        if (providers[msg.sender].registered == true){\r\n            revert(\"You are already registered\");\r\n            // change revert function to whatever necessary if it doesnt work\r\n        }else {\r\n            getcoinsprov();\r\n            providers[msg.sender].registered = true;\r\n            providers[msg.sender].add = msg.sender;\r\n        }\r\n    }\r\n\r\n    modifier onlyProvider(){ //modifier for provider\r\n        require(providers[msg.sender].registered == true) ;\r\n        _;\r\n    }\r\n    modifier onlySubscriber(){// Modifier for subscriber\r\n        require(subscribers[msg.sender].registered == true) ;\r\n        _;\r\n    }\r\n    \r\n    function createSubscription(bytes32 cname, uint cost, uint period, string memory description) onlyProvider public {\r\n        //  if statement to check that proposal by this mname does not exist\r\n        if(cname==0x0000000000000000000000000000000000000000000000000000000000000000 || cname==0x0){\r\n            revert(\"not a valid address\");\r\n        }\r\n        if (proposals[cname].name_taken == true){\r\n            revert(\"A subscription plan with this name already exists, use another name\");\r\n        }\r\n        if ((period != MONTH && period != YEAR_IN_SECONDS) ){\r\n            revert(\"Must be monthly or yearly\");\r\n        }\r\n        uint key_num = 0; // index 0 proposal 1\r\n        if (providers[msg.sender].numproposal >= 1){ // if greater than 1 proposal\r\n            key_num = providers[msg.sender].numproposal; // index of latest proposal\r\n        }\r\n        providers[msg.sender].numproposal = providers[msg.sender].numproposal + 1; // proposal count begins at 1\r\n        proposals[cname] = Proposal(cname, cost, period, true, true, description, key_num, msg.sender); // registers proposal\r\n        proposals[cname].active = true ; // turns on activity \r\n    }\r\n\r\n    //################\r\n    function pay(bytes32 prop_h) public payable onlySubscriber{\r\n        if(block.timestamp < info_by_prop[msg.sender][prop_h].next_payday){\r\n            revert(\"Payment up to date.\");\r\n        }else{ \r\n            address payable payable_creator=payable(proposals[prop_h].creator);\r\n            payable_creator.transfer(proposals[prop_h].cost);// ERC20 transfer()\r\n            info_by_prop[msg.sender][prop_h].next_payday= info_by_prop[msg.sender][prop_h].next_payday+ proposals[prop_h].period;\r\n        }\r\n    }\r\n    //##################\r\n    function collect(address newholder, uint256 amount) public payable onlyProvider{\r\n       if(msg.sender.balance<1){\r\n            revert(\"Your balance is not large enough to transfer.\");\r\n       }else{\r\n        address payable newowner = payable(newholder);\r\n        (newowner).transfer(amount);\r\n       }\r\n    }\r\n    //####################\r\n    function sub_to_plan(bytes32 prop_h) public payable onlySubscriber{\r\n        if(proposals[prop_h].name_taken == false){\r\n            revert(\"there is no subscription of this name\");\r\n        }\r\n        if(proposals[prop_h].active == false){\r\n            revert(\"this subscription is not active\");\r\n        }\r\n        if(info_by_prop[msg.sender][prop_h].in_use == true){\r\n            revert(\"you are already subscribed.\");\r\n        }\r\n        info_by_prop[msg.sender][prop_h]=subPlan(true, block.timestamp, block.timestamp);\r\n        info_by_prop[msg.sender][prop_h].next_payday = block.timestamp;\r\n        info_by_prop[msg.sender][prop_h].in_use = true;\r\n        pay(prop_h);\r\n        sub_ids[proposals[prop_h].creator][proposals[prop_h].key].push(subscribers[msg.sender].addy);\r\n    }\r\n   \r\n    // address 1 = bytes32\"netflix\" with key 0, \"youtube\" w key 1\r\n    // address 2 = bytes32\"netflix\" with key 0, \"hulu\" w key 1  \r\n\r\n    function unsub_to_plan(bytes32 prop_h) public onlySubscriber{\r\n        if(info_by_prop[msg.sender][prop_h].in_use == false){\r\n            revert();\r\n        }else if(sub_ids[proposals[prop_h].creator][proposals[prop_h].key].length==1){\r\n            info_by_prop[msg.sender][prop_h].in_use = false;\r\n            sub_ids[proposals[prop_h].creator][proposals[prop_h].key].pop();\r\n        }else if(sub_ids[proposals[prop_h].creator][proposals[prop_h].key][sub_ids[proposals[prop_h].creator][proposals[prop_h].key].length-1]==msg.sender){\r\n                info_by_prop[msg.sender][prop_h].in_use = false;\r\n                sub_ids[proposals[prop_h].creator][proposals[prop_h].key].pop();\r\n        }else {\r\n        uint index; \r\n        for(uint i=0;i<sub_ids[proposals[prop_h].creator][proposals[prop_h].key].length;i++){\r\n            if(sub_ids[proposals[prop_h].creator][proposals[prop_h].key][i]==msg.sender){\r\n                index=i;\r\n                break;\r\n            }\r\n        }\r\n        for (uint j = index; j<sub_ids[proposals[prop_h].creator][proposals[prop_h].key].length-1; j++){\r\n            sub_ids[proposals[prop_h].creator][proposals[prop_h].key][j] = sub_ids[proposals[prop_h].creator][proposals[prop_h].key][j+1];\r\n        }\r\n        info_by_prop[msg.sender][prop_h].in_use = false;\r\n        sub_ids[proposals[prop_h].creator][proposals[prop_h].key].pop();\r\n        }\r\n    }\r\n\r\n    function findSubscription (bytes32 searchName) public view returns (bytes32,uint, uint,string memory) {\r\n        if (proposals[searchName].active == true){\r\n            return (proposals[searchName].cname,proposals[searchName].cost,proposals[searchName].period, proposals[searchName].description) ;\r\n        }\r\n        else{\r\n            revert(\"Subscription by that name does not exist\") ; \r\n        }\r\n    }\r\n\r\n    function on_off_switch(bytes32 prop_h) public onlyProvider{\r\n        if(msg.sender!=proposals[prop_h].creator){\r\n            revert();\r\n        }else if(msg.sender==proposals[prop_h].creator){\r\n            proposals[prop_h].active=!proposals[prop_h].active;\r\n        }\r\n    }\r\n\r\n    function view_subs(bytes32 prop_h) onlyProvider public view returns (address[] memory) {\r\n        if(msg.sender!=proposals[prop_h].creator){\r\n            revert(\"You do not own this subscription.\");\r\n        }\r\n        return sub_ids[proposals[prop_h].creator][proposals[prop_h].key];\r\n        \r\n    }\r\n\r\n    //###################\r\n    function accessSubscscription(bytes32 prop_h) public payable onlySubscriber returns(bool){\r\n        if(info_by_prop[msg.sender][prop_h].in_use == false){\r\n            return false;\r\n        }\r\n        if (block.timestamp < info_by_prop[msg.sender][prop_h].next_payday){\r\n            return true;\r\n        }\r\n        if(block.timestamp >= info_by_prop[msg.sender][prop_h].next_payday){\r\n            while(block.timestamp > info_by_prop[msg.sender][prop_h].next_payday){\r\n                pay(prop_h);\r\n            }\r\n            return true;\r\n        }\r\n        else{\r\n            return false;\r\n        }   \r\n    }\r\n    \r\n}",
  "sourcePath": "C:\\Users\\hchou\\Desktop\\V4Cryptofans-Dapp\\Cryptofans-Dapp-V4\\Cryptofans-Dapp\\cryptofans-contract\\contracts\\Cryptofans.sol",
  "compiler": {
    "name": "solc",
    "version": "0.6.0+commit.26b70077.Emscripten.clang"
  },
  "schemaVersion": "3.0.23",
  "updatedAt": "2022-05-07T23:04:14.872Z",
  "networkType": "ethereum",
  "devdoc": {
    "methods": {}
  },
  "userdoc": {
    "methods": {
      "registerasSubscriber()": {
        "notice": "///CRYPTOFANS MARKETPLACE FUNCTIONS//////"
      }
    }
  }
}