{
  "contractName": "Cryptofans",
  "abi": [
    {
      "anonymous": false,
      "inputs": [
        {
          "indexed": true,
          "internalType": "address",
          "name": "owner",
          "type": "address"
        },
        {
          "indexed": true,
          "internalType": "address",
          "name": "spender",
          "type": "address"
        },
        {
          "indexed": false,
          "internalType": "uint256",
          "name": "value",
          "type": "uint256"
        }
      ],
      "name": "Approval",
      "type": "event"
    },
    {
      "anonymous": false,
      "inputs": [
        {
          "indexed": true,
          "internalType": "address",
          "name": "from",
          "type": "address"
        },
        {
          "indexed": true,
          "internalType": "address",
          "name": "to",
          "type": "address"
        },
        {
          "indexed": false,
          "internalType": "uint256",
          "name": "value",
          "type": "uint256"
        }
      ],
      "name": "Transfer",
      "type": "event"
    },
    {
      "inputs": [],
      "name": "decimals",
      "outputs": [
        {
          "internalType": "uint8",
          "name": "",
          "type": "uint8"
        }
      ],
      "stateMutability": "view",
      "type": "function",
      "constant": true
    },
    {
      "inputs": [],
      "name": "name",
      "outputs": [
        {
          "internalType": "string",
          "name": "",
          "type": "string"
        }
      ],
      "stateMutability": "view",
      "type": "function",
      "constant": true
    },
    {
      "inputs": [],
      "name": "symbol",
      "outputs": [
        {
          "internalType": "string",
          "name": "",
          "type": "string"
        }
      ],
      "stateMutability": "view",
      "type": "function",
      "constant": true
    },
    {
      "inputs": [],
      "name": "totalSupply",
      "outputs": [
        {
          "internalType": "uint256",
          "name": "",
          "type": "uint256"
        }
      ],
      "stateMutability": "view",
      "type": "function",
      "constant": true
    },
    {
      "inputs": [
        {
          "internalType": "address",
          "name": "tokenOwner",
          "type": "address"
        }
      ],
      "name": "balanceOf",
      "outputs": [
        {
          "internalType": "uint256",
          "name": "",
          "type": "uint256"
        }
      ],
      "stateMutability": "view",
      "type": "function",
      "constant": true
    },
    {
      "inputs": [],
      "name": "checkbalanceOf",
      "outputs": [
        {
          "internalType": "uint256",
          "name": "",
          "type": "uint256"
        }
      ],
      "stateMutability": "view",
      "type": "function",
      "constant": true
    },
    {
      "inputs": [
        {
          "internalType": "address",
          "name": "receiver",
          "type": "address"
        },
        {
          "internalType": "uint256",
          "name": "numTokens",
          "type": "uint256"
        }
      ],
      "name": "transfer",
      "outputs": [
        {
          "internalType": "bool",
          "name": "",
          "type": "bool"
        }
      ],
      "stateMutability": "nonpayable",
      "type": "function"
    },
    {
      "inputs": [
        {
          "internalType": "address",
          "name": "delegate",
          "type": "address"
        },
        {
          "internalType": "uint256",
          "name": "numTokens",
          "type": "uint256"
        }
      ],
      "name": "approve",
      "outputs": [
        {
          "internalType": "bool",
          "name": "",
          "type": "bool"
        }
      ],
      "stateMutability": "nonpayable",
      "type": "function"
    },
    {
      "inputs": [
        {
          "internalType": "address",
          "name": "owner",
          "type": "address"
        },
        {
          "internalType": "address",
          "name": "delegate",
          "type": "address"
        }
      ],
      "name": "allowance",
      "outputs": [
        {
          "internalType": "uint256",
          "name": "",
          "type": "uint256"
        }
      ],
      "stateMutability": "view",
      "type": "function",
      "constant": true
    },
    {
      "inputs": [
        {
          "internalType": "address",
          "name": "owner",
          "type": "address"
        },
        {
          "internalType": "address",
          "name": "buyer",
          "type": "address"
        },
        {
          "internalType": "uint256",
          "name": "numTokens",
          "type": "uint256"
        }
      ],
      "name": "transferFrom",
      "outputs": [
        {
          "internalType": "bool",
          "name": "",
          "type": "bool"
        }
      ],
      "stateMutability": "nonpayable",
      "type": "function"
    },
    {
      "inputs": [
        {
          "internalType": "address",
          "name": "receiver",
          "type": "address"
        },
        {
          "internalType": "uint256",
          "name": "numTokens",
          "type": "uint256"
        },
        {
          "internalType": "bytes32",
          "name": "prop_h",
          "type": "bytes32"
        }
      ],
      "name": "transfersub",
      "outputs": [
        {
          "internalType": "bool",
          "name": "",
          "type": "bool"
        }
      ],
      "stateMutability": "nonpayable",
      "type": "function"
    },
    {
      "inputs": [],
      "name": "registerasSubscriber",
      "outputs": [],
      "stateMutability": "nonpayable",
      "type": "function"
    },
    {
      "inputs": [],
      "name": "registerasProvider",
      "outputs": [],
      "stateMutability": "nonpayable",
      "type": "function"
    },
    {
      "inputs": [
        {
          "internalType": "bytes32",
          "name": "cname",
          "type": "bytes32"
        },
        {
          "internalType": "uint256",
          "name": "cost",
          "type": "uint256"
        },
        {
          "internalType": "uint256",
          "name": "period",
          "type": "uint256"
        },
        {
          "internalType": "string",
          "name": "description",
          "type": "string"
        }
      ],
      "name": "createSubscription",
      "outputs": [],
      "stateMutability": "nonpayable",
      "type": "function"
    },
    {
      "inputs": [
        {
          "internalType": "bytes32",
          "name": "prop_h",
          "type": "bytes32"
        }
      ],
      "name": "sub_to_plan",
      "outputs": [],
      "stateMutability": "payable",
      "type": "function",
      "payable": true
    },
    {
      "inputs": [
        {
          "internalType": "bytes32",
          "name": "prop_h",
          "type": "bytes32"
        }
      ],
      "name": "unsub_to_plan",
      "outputs": [],
      "stateMutability": "nonpayable",
      "type": "function"
    },
    {
      "inputs": [
        {
          "internalType": "bytes32",
          "name": "searchName",
          "type": "bytes32"
        }
      ],
      "name": "findSubscription",
      "outputs": [
        {
          "internalType": "bytes32",
          "name": "",
          "type": "bytes32"
        },
        {
          "internalType": "uint256",
          "name": "",
          "type": "uint256"
        },
        {
          "internalType": "uint256",
          "name": "",
          "type": "uint256"
        },
        {
          "internalType": "string",
          "name": "",
          "type": "string"
        }
      ],
      "stateMutability": "view",
      "type": "function",
      "constant": true
    },
    {
      "inputs": [
        {
          "internalType": "bytes32",
          "name": "prop_h",
          "type": "bytes32"
        }
      ],
      "name": "on_off_switch",
      "outputs": [],
      "stateMutability": "nonpayable",
      "type": "function"
    },
    {
      "inputs": [
        {
          "internalType": "bytes32",
          "name": "prop_h",
          "type": "bytes32"
        }
      ],
      "name": "view_subs",
      "outputs": [
        {
          "internalType": "address[]",
          "name": "",
          "type": "address[]"
        }
      ],
      "stateMutability": "view",
      "type": "function",
      "constant": true
    },
    {
      "inputs": [
        {
          "internalType": "bytes32",
          "name": "prop_h",
          "type": "bytes32"
        }
      ],
      "name": "accessSubscription",
      "outputs": [
        {
          "internalType": "bool",
          "name": "",
          "type": "bool"
        }
      ],
      "stateMutability": "payable",
      "type": "function",
      "payable": true
    }
  ],
  "bytecode": "0x6080604052678ac7230489e80000600755670de0b6b3a764000060085534801561002857600080fd5b50613826806100386000396000f3fe60806040526004361061011f5760003560e01c80634d368a79116100a0578063b8fbf85911610064578063b8fbf8591461076c578063c20031231461079a578063dd62ed3e146107d5578063e9c5e43f1461085a578063f960f8de146108d75761011f565b80634d368a79146104d857806370a08231146105be57806386a126c51461062357806395d89b4114610669578063a9059cbb146106f95761011f565b806318160ddd116100e757806318160ddd1461031e57806323b872dd1461034957806327e69c45146103dc578063313ce5671461046c578063327e2e4c1461049d5761011f565b806306fdde0314610124578063095ea7b3146101b45780630daf9687146102275780630ecea00d1461023e5780631708991814610255575b600080fd5b34801561013057600080fd5b50610139610902565b6040518080602001828103825283818151815260200191508051906020019080838360005b8381101561017957808201518184015260208101905061015e565b50505050905090810190601f1680156101a65780820380516001836020036101000a031916815260200191505b509250505060405180910390f35b3480156101c057600080fd5b5061020d600480360360408110156101d757600080fd5b81019080803573ffffffffffffffffffffffffffffffffffffffff1690602001909291908035906020019092919050505061093b565b604051808215151515815260200191505060405180910390f35b34801561023357600080fd5b5061023c610a2d565b005b34801561024a57600080fd5b50610253610bdd565b005b34801561026157600080fd5b5061028e6004803603602081101561027857600080fd5b8101908080359060200190929190505050610d8a565b6040518085815260200184815260200183815260200180602001828103825283818151815260200191508051906020019080838360005b838110156102e05780820151818401526020810190506102c5565b50505050905090810190601f16801561030d5780820380516001836020036101000a031916815260200191505b509550505050505060405180910390f35b34801561032a57600080fd5b50610333610f1d565b6040518082815260200191505060405180910390f35b34801561035557600080fd5b506103c26004803603606081101561036c57600080fd5b81019080803573ffffffffffffffffffffffffffffffffffffffff169060200190929190803573ffffffffffffffffffffffffffffffffffffffff16906020019092919080359060200190929190505050610f27565b604051808215151515815260200191505060405180910390f35b3480156103e857600080fd5b50610415600480360360208110156103ff57600080fd5b8101908080359060200190929190505050611277565b6040518080602001828103825283818151815260200191508051906020019060200280838360005b8381101561045857808201518184015260208101905061043d565b505050509050019250505060405180910390f35b34801561047857600080fd5b506104816114bb565b604051808260ff1660ff16815260200191505060405180910390f35b3480156104a957600080fd5b506104d6600480360360208110156104c057600080fd5b81019080803590602001909291905050506114c0565b005b3480156104e457600080fd5b506105bc600480360360808110156104fb57600080fd5b810190808035906020019092919080359060200190929190803590602001909291908035906020019064010000000081111561053657600080fd5b82018360208201111561054857600080fd5b8035906020019184600183028401116401000000008311171561056a57600080fd5b91908080601f016020809104026020016040519081016040528093929190818152602001838380828437600081840152601f19601f82011690508083019250505050505050919291929050505061164e565b005b3480156105ca57600080fd5b5061060d600480360360208110156105e157600080fd5b81019080803573ffffffffffffffffffffffffffffffffffffffff169060200190929190505050611acd565b6040518082815260200191505060405180910390f35b61064f6004803603602081101561063957600080fd5b8101908080359060200190929190505050611b16565b604051808215151515815260200191505060405180910390f35b34801561067557600080fd5b5061067e611d77565b6040518080602001828103825283818151815260200191508051906020019080838360005b838110156106be5780820151818401526020810190506106a3565b50505050905090810190601f1680156106eb5780820380516001836020036101000a031916815260200191505b509250505060405180910390f35b34801561070557600080fd5b506107526004803603604081101561071c57600080fd5b81019080803573ffffffffffffffffffffffffffffffffffffffff16906020019092919080359060200190929190505050611db0565b604051808215151515815260200191505060405180910390f35b6107986004803603602081101561078257600080fd5b8101908080359060200190929190505050611f77565b005b3480156107a657600080fd5b506107d3600480360360208110156107bd57600080fd5b81019080803590602001909291905050506124f2565b005b3480156107e157600080fd5b50610844600480360360408110156107f857600080fd5b81019080803573ffffffffffffffffffffffffffffffffffffffff169060200190929190803573ffffffffffffffffffffffffffffffffffffffff169060200190929190505050613040565b6040518082815260200191505060405180910390f35b34801561086657600080fd5b506108bd6004803603606081101561087d57600080fd5b81019080803573ffffffffffffffffffffffffffffffffffffffff16906020019092919080359060200190929190803590602001909291905050506130c7565b604051808215151515815260200191505060405180910390f35b3480156108e357600080fd5b506108ec613279565b6040518082815260200191505060405180910390f35b6040518060400160405280600781526020017f537562436f696e0000000000000000000000000000000000000000000000000081525081565b600081600660003373ffffffffffffffffffffffffffffffffffffffff1673ffffffffffffffffffffffffffffffffffffffff16815260200190815260200160002060008573ffffffffffffffffffffffffffffffffffffffff1673ffffffffffffffffffffffffffffffffffffffff168152602001908152602001600020819055508273ffffffffffffffffffffffffffffffffffffffff163373ffffffffffffffffffffffffffffffffffffffff167f8c5be1e5ebec7d5bd14f71427d1e84f3dd0314c0f7b2291e5b200ac8c7c3b925846040518082815260200191505060405180910390a36001905092915050565b60011515600260003373ffffffffffffffffffffffffffffffffffffffff1673ffffffffffffffffffffffffffffffffffffffff16815260200190815260200160002060000160149054906101000a900460ff1615151415610af7576040517f08c379a000000000000000000000000000000000000000000000000000000000815260040180806020018281038252601a8152602001807f596f752061726520616c7265616479207265676973746572656400000000000081525060200191505060405180910390fd5b610aff6133ca565b6001600260003373ffffffffffffffffffffffffffffffffffffffff1673ffffffffffffffffffffffffffffffffffffffff16815260200190815260200160002060000160146101000a81548160ff02191690831515021790555033600260003373ffffffffffffffffffffffffffffffffffffffff1673ffffffffffffffffffffffffffffffffffffffff16815260200190815260200160002060000160006101000a81548173ffffffffffffffffffffffffffffffffffffffff021916908373ffffffffffffffffffffffffffffffffffffffff160217905550565b600115156000803373ffffffffffffffffffffffffffffffffffffffff1673ffffffffffffffffffffffffffffffffffffffff16815260200190815260200160002060000160149054906101000a900460ff1615151415610ca6576040517f08c379a000000000000000000000000000000000000000000000000000000000815260040180806020018281038252601a8152602001807f596f752061726520616c7265616479207265676973746572656400000000000081525060200191505060405180910390fd5b610cae613521565b60016000803373ffffffffffffffffffffffffffffffffffffffff1673ffffffffffffffffffffffffffffffffffffffff16815260200190815260200160002060000160146101000a81548160ff021916908315150217905550336000803373ffffffffffffffffffffffffffffffffffffffff1673ffffffffffffffffffffffffffffffffffffffff16815260200190815260200160002060000160006101000a81548173ffffffffffffffffffffffffffffffffffffffff021916908373ffffffffffffffffffffffffffffffffffffffff160217905550565b60008060006060600115156001600087815260200190815260200160002060030160009054906101000a900460ff1615151415610ec55760016000868152602001908152602001600020600001546001600087815260200190815260200160002060010154600160008881526020019081526020016000206002015460016000898152602001908152602001600020600401808054600181600116156101000203166002900480601f016020809104026020016040519081016040528092919081815260200182805460018160011615610100020316600290048015610eb15780601f10610e8657610100808354040283529160200191610eb1565b820191906000526020600020905b815481529060010190602001808311610e9457829003601f168201915b505050505090509350935093509350610f16565b6040517f08c379a00000000000000000000000000000000000000000000000000000000081526004018080602001828103825260288152602001806137c96028913960400191505060405180910390fd5b9193509193565b6000600754905090565b6000600560008573ffffffffffffffffffffffffffffffffffffffff1673ffffffffffffffffffffffffffffffffffffffff16815260200190815260200160002054821115610f7557600080fd5b600660008573ffffffffffffffffffffffffffffffffffffffff1673ffffffffffffffffffffffffffffffffffffffff16815260200190815260200160002060003373ffffffffffffffffffffffffffffffffffffffff1673ffffffffffffffffffffffffffffffffffffffff16815260200190815260200160002054821115610ffe57600080fd5b81600560008673ffffffffffffffffffffffffffffffffffffffff1673ffffffffffffffffffffffffffffffffffffffff1681526020019081526020016000205403600560008673ffffffffffffffffffffffffffffffffffffffff1673ffffffffffffffffffffffffffffffffffffffff1681526020019081526020016000208190555081600660008673ffffffffffffffffffffffffffffffffffffffff1673ffffffffffffffffffffffffffffffffffffffff16815260200190815260200160002060003373ffffffffffffffffffffffffffffffffffffffff1673ffffffffffffffffffffffffffffffffffffffff1681526020019081526020016000205403600660008673ffffffffffffffffffffffffffffffffffffffff1673ffffffffffffffffffffffffffffffffffffffff16815260200190815260200160002060003373ffffffffffffffffffffffffffffffffffffffff1673ffffffffffffffffffffffffffffffffffffffff1681526020019081526020016000208190555081600560008573ffffffffffffffffffffffffffffffffffffffff1673ffffffffffffffffffffffffffffffffffffffff1681526020019081526020016000205401600560008573ffffffffffffffffffffffffffffffffffffffff1673ffffffffffffffffffffffffffffffffffffffff168152602001908152602001600020819055508273ffffffffffffffffffffffffffffffffffffffff168473ffffffffffffffffffffffffffffffffffffffff167fddf252ad1be2c89b69c2b068fc378daa952ba7f163c4a11628f55a4df523b3ef846040518082815260200191505060405180910390a3600190509392505050565b606060011515600260003373ffffffffffffffffffffffffffffffffffffffff1673ffffffffffffffffffffffffffffffffffffffff16815260200190815260200160002060000160149054906101000a900460ff161515146112d957600080fd5b6001600083815260200190815260200160002060060160009054906101000a900473ffffffffffffffffffffffffffffffffffffffff1673ffffffffffffffffffffffffffffffffffffffff163373ffffffffffffffffffffffffffffffffffffffff1614611393576040517f08c379a00000000000000000000000000000000000000000000000000000000081526004018080602001828103825260218152602001806137a86021913960400191505060405180910390fd5b600360006001600085815260200190815260200160002060060160009054906101000a900473ffffffffffffffffffffffffffffffffffffffff1673ffffffffffffffffffffffffffffffffffffffff1673ffffffffffffffffffffffffffffffffffffffff1681526020019081526020016000206000600160008581526020019081526020016000206005015481526020019081526020016000208054806020026020016040519081016040528092919081815260200182805480156114af57602002820191906000526020600020905b8160009054906101000a900473ffffffffffffffffffffffffffffffffffffffff1673ffffffffffffffffffffffffffffffffffffffff1681526020019060010190808311611465575b50505050509050919050565b601281565b60011515600260003373ffffffffffffffffffffffffffffffffffffffff1673ffffffffffffffffffffffffffffffffffffffff16815260200190815260200160002060000160149054906101000a900460ff1615151461152057600080fd5b6001600082815260200190815260200160002060060160009054906101000a900473ffffffffffffffffffffffffffffffffffffffff1673ffffffffffffffffffffffffffffffffffffffff163373ffffffffffffffffffffffffffffffffffffffff161461158e57600080fd5b6001600082815260200190815260200160002060060160009054906101000a900473ffffffffffffffffffffffffffffffffffffffff1673ffffffffffffffffffffffffffffffffffffffff163373ffffffffffffffffffffffffffffffffffffffff16141561164b576001600082815260200190815260200160002060030160009054906101000a900460ff16156001600083815260200190815260200160002060030160006101000a81548160ff0219169083151502179055505b50565b60011515600260003373ffffffffffffffffffffffffffffffffffffffff1673ffffffffffffffffffffffffffffffffffffffff16815260200190815260200160002060000160149054906101000a900460ff161515146116ae57600080fd5b6000801b8414806116c157506000801b84145b15611734576040517f08c379a00000000000000000000000000000000000000000000000000000000081526004018080602001828103825260138152602001807f6e6f7420612076616c696420616464726573730000000000000000000000000081525060200191505060405180910390fd5b600115156001600086815260200190815260200160002060030160019054906101000a900460ff16151514156117b5576040517f08c379a00000000000000000000000000000000000000000000000000000000081526004018080602001828103825260438152602001806137406043913960600191505060405180910390fd5b622819a082141580156117cc57506301e133808214155b1561183f576040517f08c379a00000000000000000000000000000000000000000000000000000000081526004018080602001828103825260198152602001807f4d757374206265206d6f6e74686c79206f7220796561726c790000000000000081525060200191505060405180910390fd5b60008090506001600260003373ffffffffffffffffffffffffffffffffffffffff1673ffffffffffffffffffffffffffffffffffffffff16815260200190815260200160002060010154106118d457600260003373ffffffffffffffffffffffffffffffffffffffff1673ffffffffffffffffffffffffffffffffffffffff1681526020019081526020016000206001015490505b6001600260003373ffffffffffffffffffffffffffffffffffffffff1673ffffffffffffffffffffffffffffffffffffffff1681526020019081526020016000206001015401600260003373ffffffffffffffffffffffffffffffffffffffff1673ffffffffffffffffffffffffffffffffffffffff168152602001908152602001600020600101819055506040518061010001604052808681526020018581526020018481526020016001151581526020016001151581526020018381526020018281526020013373ffffffffffffffffffffffffffffffffffffffff168152506001600087815260200190815260200160002060008201518160000155602082015181600101556040820151816002015560608201518160030160006101000a81548160ff02191690831515021790555060808201518160030160016101000a81548160ff02191690831515021790555060a0820151816004019080519060200190611a43929190613678565b5060c0820151816005015560e08201518160060160006101000a81548173ffffffffffffffffffffffffffffffffffffffff021916908373ffffffffffffffffffffffffffffffffffffffff160217905550905050600180600087815260200190815260200160002060030160006101000a81548160ff0219169083151502179055505050505050565b6000600560008373ffffffffffffffffffffffffffffffffffffffff1673ffffffffffffffffffffffffffffffffffffffff168152602001908152602001600020549050919050565b6000600115156000803373ffffffffffffffffffffffffffffffffffffffff1673ffffffffffffffffffffffffffffffffffffffff16815260200190815260200160002060000160149054906101000a900460ff16151514611b7757600080fd5b60001515600460003373ffffffffffffffffffffffffffffffffffffffff1673ffffffffffffffffffffffffffffffffffffffff168152602001908152602001600020600084815260200190815260200160002060000160009054906101000a900460ff1615151415611bed5760009050611d72565b600460003373ffffffffffffffffffffffffffffffffffffffff1673ffffffffffffffffffffffffffffffffffffffff168152602001908152602001600020600083815260200190815260200160002060010154421015611c515760019050611d72565b600460003373ffffffffffffffffffffffffffffffffffffffff1673ffffffffffffffffffffffffffffffffffffffff1681526020019081526020016000206000838152602001908152602001600020600101544210611d6d575b600460003373ffffffffffffffffffffffffffffffffffffffff1673ffffffffffffffffffffffffffffffffffffffff168152602001908152602001600020600083815260200190815260200160002060010154421115611d6457611d5e6001600084815260200190815260200160002060060160009054906101000a900473ffffffffffffffffffffffffffffffffffffffff166001600085815260200190815260200160002060010154846130c7565b50611cac565b60019050611d72565b600090505b919050565b6040518060400160405280600381526020017f534243000000000000000000000000000000000000000000000000000000000081525081565b6000600560003373ffffffffffffffffffffffffffffffffffffffff1673ffffffffffffffffffffffffffffffffffffffff16815260200190815260200160002054821115611dfe57600080fd5b81600560003373ffffffffffffffffffffffffffffffffffffffff1673ffffffffffffffffffffffffffffffffffffffff1681526020019081526020016000205403600560003373ffffffffffffffffffffffffffffffffffffffff1673ffffffffffffffffffffffffffffffffffffffff1681526020019081526020016000208190555081600560008573ffffffffffffffffffffffffffffffffffffffff1673ffffffffffffffffffffffffffffffffffffffff1681526020019081526020016000205401600560008573ffffffffffffffffffffffffffffffffffffffff1673ffffffffffffffffffffffffffffffffffffffff168152602001908152602001600020819055508273ffffffffffffffffffffffffffffffffffffffff163373ffffffffffffffffffffffffffffffffffffffff167fddf252ad1be2c89b69c2b068fc378daa952ba7f163c4a11628f55a4df523b3ef846040518082815260200191505060405180910390a36001905092915050565b600115156000803373ffffffffffffffffffffffffffffffffffffffff1673ffffffffffffffffffffffffffffffffffffffff16815260200190815260200160002060000160149054906101000a900460ff16151514611fd657600080fd5b600015156001600083815260200190815260200160002060030160019054906101000a900460ff1615151415612057576040517f08c379a00000000000000000000000000000000000000000000000000000000081526004018080602001828103825260258152602001806137836025913960400191505060405180910390fd5b600015156001600083815260200190815260200160002060030160009054906101000a900460ff16151514156120f5576040517f08c379a000000000000000000000000000000000000000000000000000000000815260040180806020018281038252601f8152602001807f7468697320737562736372697074696f6e206973206e6f74206163746976650081525060200191505060405180910390fd5b60011515600460003373ffffffffffffffffffffffffffffffffffffffff1673ffffffffffffffffffffffffffffffffffffffff168152602001908152602001600020600083815260200190815260200160002060000160009054906101000a900460ff16151514156121d0576040517f08c379a000000000000000000000000000000000000000000000000000000000815260040180806020018281038252601b8152602001807f796f752061726520616c726561647920737562736372696265642e000000000081525060200191505060405180910390fd5b604051806060016040528060011515815260200142815260200142815250600460003373ffffffffffffffffffffffffffffffffffffffff1673ffffffffffffffffffffffffffffffffffffffff168152602001908152602001600020600083815260200190815260200160002060008201518160000160006101000a81548160ff021916908315150217905550602082015181600101556040820151816002015590505042600460003373ffffffffffffffffffffffffffffffffffffffff1673ffffffffffffffffffffffffffffffffffffffff1681526020019081526020016000206000838152602001908152602001600020600101819055506001600460003373ffffffffffffffffffffffffffffffffffffffff1673ffffffffffffffffffffffffffffffffffffffff168152602001908152602001600020600083815260200190815260200160002060000160006101000a81548160ff0219169083151502179055506123906001600083815260200190815260200160002060060160009054906101000a900473ffffffffffffffffffffffffffffffffffffffff166001600084815260200190815260200160002060010154836130c7565b50600360006001600084815260200190815260200160002060060160009054906101000a900473ffffffffffffffffffffffffffffffffffffffff1673ffffffffffffffffffffffffffffffffffffffff1673ffffffffffffffffffffffffffffffffffffffff1681526020019081526020016000206000600160008481526020019081526020016000206005015481526020019081526020016000206000803373ffffffffffffffffffffffffffffffffffffffff1673ffffffffffffffffffffffffffffffffffffffff16815260200190815260200160002060000160009054906101000a900473ffffffffffffffffffffffffffffffffffffffff169080600181540180825580915050600190039060005260206000200160009091909190916101000a81548173ffffffffffffffffffffffffffffffffffffffff021916908373ffffffffffffffffffffffffffffffffffffffff16021790555050565b600115156000803373ffffffffffffffffffffffffffffffffffffffff1673ffffffffffffffffffffffffffffffffffffffff16815260200190815260200160002060000160149054906101000a900460ff1615151461255157600080fd5b60001515600460003373ffffffffffffffffffffffffffffffffffffffff1673ffffffffffffffffffffffffffffffffffffffff168152602001908152602001600020600083815260200190815260200160002060000160009054906101000a900460ff16151514156125c357600080fd5b6001600360006001600085815260200190815260200160002060060160009054906101000a900473ffffffffffffffffffffffffffffffffffffffff1673ffffffffffffffffffffffffffffffffffffffff1673ffffffffffffffffffffffffffffffffffffffff1681526020019081526020016000206000600160008581526020019081526020016000206005015481526020019081526020016000208054905014156127b6576000600460003373ffffffffffffffffffffffffffffffffffffffff1673ffffffffffffffffffffffffffffffffffffffff168152602001908152602001600020600083815260200190815260200160002060000160006101000a81548160ff021916908315150217905550600360006001600084815260200190815260200160002060060160009054906101000a900473ffffffffffffffffffffffffffffffffffffffff1673ffffffffffffffffffffffffffffffffffffffff1673ffffffffffffffffffffffffffffffffffffffff16815260200190815260200160002060006001600084815260200190815260200160002060050154815260200190815260200160002080548061277c57fe5b6001900381819060005260206000200160006101000a81549073ffffffffffffffffffffffffffffffffffffffff0219169055905561303d565b3373ffffffffffffffffffffffffffffffffffffffff16600360006001600085815260200190815260200160002060060160009054906101000a900473ffffffffffffffffffffffffffffffffffffffff1673ffffffffffffffffffffffffffffffffffffffff1673ffffffffffffffffffffffffffffffffffffffff1681526020019081526020016000206000600160008581526020019081526020016000206005015481526020019081526020016000206001600360006001600087815260200190815260200160002060060160009054906101000a900473ffffffffffffffffffffffffffffffffffffffff1673ffffffffffffffffffffffffffffffffffffffff1673ffffffffffffffffffffffffffffffffffffffff16815260200190815260200160002060006001600087815260200190815260200160002060050154815260200190815260200160002080549050038154811061291657fe5b9060005260206000200160009054906101000a900473ffffffffffffffffffffffffffffffffffffffff1673ffffffffffffffffffffffffffffffffffffffff161415612aa8576000600460003373ffffffffffffffffffffffffffffffffffffffff1673ffffffffffffffffffffffffffffffffffffffff168152602001908152602001600020600083815260200190815260200160002060000160006101000a81548160ff021916908315150217905550600360006001600084815260200190815260200160002060060160009054906101000a900473ffffffffffffffffffffffffffffffffffffffff1673ffffffffffffffffffffffffffffffffffffffff1673ffffffffffffffffffffffffffffffffffffffff168152602001908152602001600020600060016000848152602001908152602001600020600501548152602001908152602001600020805480612a6e57fe5b6001900381819060005260206000200160006101000a81549073ffffffffffffffffffffffffffffffffffffffff0219169055905561303c565b600080600090505b600360006001600086815260200190815260200160002060060160009054906101000a900473ffffffffffffffffffffffffffffffffffffffff1673ffffffffffffffffffffffffffffffffffffffff1673ffffffffffffffffffffffffffffffffffffffff16815260200190815260200160002060006001600086815260200190815260200160002060050154815260200190815260200160002080549050811015612c71573373ffffffffffffffffffffffffffffffffffffffff16600360006001600087815260200190815260200160002060060160009054906101000a900473ffffffffffffffffffffffffffffffffffffffff1673ffffffffffffffffffffffffffffffffffffffff1673ffffffffffffffffffffffffffffffffffffffff1681526020019081526020016000206000600160008781526020019081526020016000206005015481526020019081526020016000208281548110612c1557fe5b9060005260206000200160009054906101000a900473ffffffffffffffffffffffffffffffffffffffff1673ffffffffffffffffffffffffffffffffffffffff161415612c6457809150612c71565b8080600101915050612ab0565b5060008190505b6001600360006001600087815260200190815260200160002060060160009054906101000a900473ffffffffffffffffffffffffffffffffffffffff1673ffffffffffffffffffffffffffffffffffffffff1673ffffffffffffffffffffffffffffffffffffffff1681526020019081526020016000206000600160008781526020019081526020016000206005015481526020019081526020016000208054905003811015612ef357600360006001600086815260200190815260200160002060060160009054906101000a900473ffffffffffffffffffffffffffffffffffffffff1673ffffffffffffffffffffffffffffffffffffffff1673ffffffffffffffffffffffffffffffffffffffff1681526020019081526020016000206000600160008681526020019081526020016000206005015481526020019081526020016000206001820181548110612dcc57fe5b9060005260206000200160009054906101000a900473ffffffffffffffffffffffffffffffffffffffff16600360006001600087815260200190815260200160002060060160009054906101000a900473ffffffffffffffffffffffffffffffffffffffff1673ffffffffffffffffffffffffffffffffffffffff1673ffffffffffffffffffffffffffffffffffffffff1681526020019081526020016000206000600160008781526020019081526020016000206005015481526020019081526020016000208281548110612e9e57fe5b9060005260206000200160006101000a81548173ffffffffffffffffffffffffffffffffffffffff021916908373ffffffffffffffffffffffffffffffffffffffff1602179055508080600101915050612c78565b506000600460003373ffffffffffffffffffffffffffffffffffffffff1673ffffffffffffffffffffffffffffffffffffffff168152602001908152602001600020600084815260200190815260200160002060000160006101000a81548160ff021916908315150217905550600360006001600085815260200190815260200160002060060160009054906101000a900473ffffffffffffffffffffffffffffffffffffffff1673ffffffffffffffffffffffffffffffffffffffff1673ffffffffffffffffffffffffffffffffffffffff16815260200190815260200160002060006001600085815260200190815260200160002060050154815260200190815260200160002080548061300557fe5b6001900381819060005260206000200160006101000a81549073ffffffffffffffffffffffffffffffffffffffff02191690559055505b5b50565b6000600660008473ffffffffffffffffffffffffffffffffffffffff1673ffffffffffffffffffffffffffffffffffffffff16815260200190815260200160002060008373ffffffffffffffffffffffffffffffffffffffff1673ffffffffffffffffffffffffffffffffffffffff16815260200190815260200160002054905092915050565b6000600460003373ffffffffffffffffffffffffffffffffffffffff1673ffffffffffffffffffffffffffffffffffffffff168152602001908152602001600020600083815260200190815260200160002060010154421015613192576040517f08c379a00000000000000000000000000000000000000000000000000000000081526004018080602001828103825260138152602001807f5061796d656e7420757020746f20646174652e0000000000000000000000000081525060200191505060405180910390fd5b61319c8484611db0565b1561326d576001600083815260200190815260200160002060020154600460003373ffffffffffffffffffffffffffffffffffffffff1673ffffffffffffffffffffffffffffffffffffffff16815260200190815260200160002060008481526020019081526020016000206001015401600460003373ffffffffffffffffffffffffffffffffffffffff1673ffffffffffffffffffffffffffffffffffffffff16815260200190815260200160002060008481526020019081526020016000206001018190555060019050613272565b600090505b9392505050565b60008015156000803373ffffffffffffffffffffffffffffffffffffffff1673ffffffffffffffffffffffffffffffffffffffff16815260200190815260200160002060000160149054906101000a900460ff16151514801561332f575060001515600260003373ffffffffffffffffffffffffffffffffffffffff1673ffffffffffffffffffffffffffffffffffffffff16815260200190815260200160002060000160149054906101000a900460ff161515145b15613385576040517f08c379a000000000000000000000000000000000000000000000000000000000815260040180806020018281038252602281526020018061371e6022913960400191505060405180910390fd5b600560003373ffffffffffffffffffffffffffffffffffffffff1673ffffffffffffffffffffffffffffffffffffffff16815260200190815260200160002054905090565b600115156000803373ffffffffffffffffffffffffffffffffffffffff1673ffffffffffffffffffffffffffffffffffffffff16815260200190815260200160002060000160149054906101000a900460ff16151514801561347f575060001515600260003373ffffffffffffffffffffffffffffffffffffffff1673ffffffffffffffffffffffffffffffffffffffff16815260200190815260200160002060000160149054906101000a900460ff161515145b156134d857600854600560003373ffffffffffffffffffffffffffffffffffffffff1673ffffffffffffffffffffffffffffffffffffffff1681526020019081526020016000206000828254019250508190555061351f565b600854600560003373ffffffffffffffffffffffffffffffffffffffff1673ffffffffffffffffffffffffffffffffffffffff168152602001908152602001600020819055505b565b600015156000803373ffffffffffffffffffffffffffffffffffffffff1673ffffffffffffffffffffffffffffffffffffffff16815260200190815260200160002060000160149054906101000a900460ff1615151480156135d6575060011515600260003373ffffffffffffffffffffffffffffffffffffffff1673ffffffffffffffffffffffffffffffffffffffff16815260200190815260200160002060000160149054906101000a900460ff161515145b1561362f57600754600560003373ffffffffffffffffffffffffffffffffffffffff1673ffffffffffffffffffffffffffffffffffffffff16815260200190815260200160002060008282540192505081905550613676565b600754600560003373ffffffffffffffffffffffffffffffffffffffff1673ffffffffffffffffffffffffffffffffffffffff168152602001908152602001600020819055505b565b828054600181600116156101000203166002900490600052602060002090601f016020900481019282601f106136b957805160ff19168380011785556136e7565b828001600101855582156136e7579182015b828111156136e65782518255916020019190600101906136cb565b5b5090506136f491906136f8565b5090565b61371a91905b808211156137165760008160009055506001016136fe565b5090565b9056fe506c6561736520726567697374657220746f206861766520612062616c616e63652e4120737562736372697074696f6e20706c616e20776974682074686973206e616d6520616c7265616479206578697374732c2075736520616e6f74686572206e616d657468657265206973206e6f20737562736372697074696f6e206f662074686973206e616d65596f7520646f206e6f74206f776e207468697320737562736372697074696f6e2e537562736372697074696f6e2062792074686174206e616d6520646f6573206e6f74206578697374a2646970667358221220899e817da423cb2eb46b38c66b5bae1b49450bc327749f06d277574d18da2a0464736f6c63430006000033",
  "source": "// SPDX-License-Identifier: hasanhenry426\r\npragma solidity >=0.6.0 <=0.9.0;\r\n\r\nimport './helper_contracts/IERC20.sol';\r\n\r\ncontract Cryptofans is IERC20 {\r\n    //subscription periods\r\n    uint constant MONTH= 2628000;\r\n    uint constant YEAR_IN_SECONDS = 31536000;\r\n    //structs\r\n    struct Subscriber {\r\n        address addy;// sub address\r\n        bool registered;\r\n        uint256 start;\r\n    }\r\n    struct Provider{\r\n        address add;\r\n        bool registered; \r\n        uint numproposal;\r\n    }\r\n    struct subPlan{\r\n        bool in_use;\r\n        uint256 next_payday;\r\n        uint256 start_payday;\r\n    }\r\n    struct Proposal { // \r\n        bytes32 cname;   //(?) short name (up to 32 bytes) X 1000000000000000000\r\n        uint cost;\r\n        uint256 period;// (   billed cycle in days )\r\n        bool active; // active or not\r\n        bool name_taken;\r\n        string description;\r\n        uint key;//-> act like a hash \r\n        address creator; \r\n    }\r\n    //data \r\n    mapping(address => Subscriber) subscribers;//subscriber's address to each individual Sub struct\r\n    mapping(bytes32=>Proposal) proposals;//All existing proposals= key:name val:proposal struct  \r\n    mapping(address => Provider) providers;//providers' addresses to an individual provider struct  \r\n    mapping(address=>mapping(uint=>address[])) sub_ids;//provider's address to key to list of subscribers\r\n    mapping(address=>mapping(bytes32=>subPlan)) info_by_prop;//Subs' address mapped to a proposal name mapped to a subscribers' plan \r\n    \r\n    ////ERC20 INTITIALIZE\r\n    string public constant name = \"SubCoin\";\r\n    string public constant symbol = \"SBC\";\r\n    uint8 public constant decimals = 18;\r\n\r\n\r\n    mapping(address => uint256) balances;\r\n\r\n    mapping(address => mapping (address => uint256)) allowed;\r\n\r\n    uint256 totalSupply_ = 10 ether;\r\n\r\n    uint256 ptotalSupply_ = 1 ether;\r\n\r\n\r\n   \r\n\r\n    function totalSupply() public override view returns (uint256) {\r\n    return totalSupply_;\r\n    }\r\n\r\n\r\n    function getcoins() private{\r\n        if(subscribers[msg.sender].registered == false && providers[msg.sender].registered == true){\r\n            balances[msg.sender] += totalSupply_;\r\n        }else{\r\n            balances[msg.sender] = totalSupply_;\r\n        }\r\n    }\r\n\r\n     function getcoinsprov() private{\r\n         if(subscribers[msg.sender].registered == true && providers[msg.sender].registered == false){\r\n            balances[msg.sender] += ptotalSupply_;\r\n        }else{balances[msg.sender] = ptotalSupply_;}\r\n    }\r\n\r\n    function balanceOf(address tokenOwner) public override view returns (uint256) {\r\n        return balances[tokenOwner];\r\n    }\r\n\r\n    function checkbalanceOf() public view returns (uint256) {\r\n        if(subscribers[msg.sender].registered == false && providers[msg.sender].registered == false){\r\n            revert(\"Please register to have a balance.\");\r\n        }\r\n        return balances[msg.sender];\r\n    }\r\n\r\n    \r\n    \r\n\r\n    function transfer(address receiver, uint256 numTokens) public override returns (bool) {\r\n        require(numTokens <= balances[msg.sender]);\r\n        balances[msg.sender] = balances[msg.sender]-numTokens;\r\n        balances[receiver] = balances[receiver]+numTokens;\r\n        emit Transfer(msg.sender, receiver, numTokens);\r\n        return true;\r\n    }\r\n\r\n    function approve(address delegate, uint256 numTokens) public override returns (bool) {\r\n        allowed[msg.sender][delegate] = numTokens;\r\n        emit Approval(msg.sender, delegate, numTokens);\r\n        return true;\r\n    }\r\n\r\n    function allowance(address owner, address delegate) public override view returns (uint) {\r\n        return allowed[owner][delegate];\r\n    }\r\n\r\n    function transferFrom(address owner, address buyer, uint256 numTokens) public override returns (bool) {\r\n        require(numTokens <= balances[owner]);\r\n        require(numTokens <= allowed[owner][msg.sender]);\r\n\r\n        balances[owner] = balances[owner]-numTokens;\r\n        allowed[owner][msg.sender] = allowed[owner][msg.sender]-numTokens;\r\n        balances[buyer] = balances[buyer]+numTokens;\r\n        emit Transfer(owner, buyer, numTokens);\r\n        return true;\r\n    }\r\n\r\n    function transfersub(address receiver, uint256 numTokens, bytes32 prop_h) public returns (bool) {\r\n         if(block.timestamp < info_by_prop[msg.sender][prop_h].next_payday){\r\n            revert(\"Payment up to date.\");\r\n        }else{ \r\n           if(transfer(receiver, numTokens) ){\r\n            info_by_prop[msg.sender][prop_h].next_payday= info_by_prop[msg.sender][prop_h].next_payday+ proposals[prop_h].period;\r\n            return true;\r\n           }\r\n           else{\r\n               return false;\r\n           }\r\n        }\r\n    }\r\n\r\n   \r\n    ////ERC20 FUNCTIONS\r\n    //re-define:\r\n    //function transfer(address receiver, uint256 numTokens) public override returns (bool) {}\r\n    //function balanceOf(address tokenOwner) public override view returns (uint256) {}\r\n    //function approve(address delegate, uint256 numTokens) public override returns (bool) {}\r\n    //function totalSupply() external view returns (uint256){}\r\n    //function transferFrom(address sender, address recipient, uint256 amount) external returns (bool){}\r\n\r\n    //currently unused:\r\n    //function allowance(address owner, address spender) external view returns (uint256);\r\n\r\n    //events(implement):\r\n    //event Transfer(address indexed from, address indexed to, uint256 value);\r\n    //event Approval(address indexed owner, address indexed spender, uint256 value);\r\n\r\n    //////CRYPTOFANS MARKETPLACE FUNCTIONS//////\r\n    function registerasSubscriber () public {\r\n        // if statement to check if they already registered\r\n        // nested mapping goes here??\r\n        if (subscribers[msg.sender].registered == true){\r\n            revert(\"You are already registered\");\r\n            // change revert function to whatever necessary if it doesnt work\r\n        }\r\n        else{\r\n            getcoins();\r\n            subscribers[msg.sender].registered = true;\r\n            subscribers[msg.sender].addy = msg.sender;\r\n        }\r\n    }\r\n   \r\n    \r\n    function registerasProvider () public {\r\n        // if statement to check if ti exists\r\n        if (providers[msg.sender].registered == true){\r\n            revert(\"You are already registered\");\r\n            // change revert function to whatever necessary if it doesnt work\r\n        }else {\r\n            getcoinsprov();\r\n            providers[msg.sender].registered = true;\r\n            providers[msg.sender].add = msg.sender;\r\n        }\r\n    }\r\n\r\n    modifier onlyProvider(){ //modifier for provider\r\n        require(providers[msg.sender].registered == true) ;\r\n        _;\r\n    }\r\n    modifier onlySubscriber(){// Modifier for subscriber\r\n        require(subscribers[msg.sender].registered == true) ;\r\n        _;\r\n    }\r\n    \r\n    function createSubscription(bytes32 cname, uint cost, uint period, string memory description) onlyProvider public {\r\n        //  if statement to check that proposal by this mname does not exist\r\n        if(cname==0x0000000000000000000000000000000000000000000000000000000000000000 || cname==0x0){\r\n            revert(\"not a valid address\");\r\n        }\r\n        if (proposals[cname].name_taken == true){\r\n            revert(\"A subscription plan with this name already exists, use another name\");\r\n        }\r\n        if ((period != MONTH && period != YEAR_IN_SECONDS) ){\r\n            revert(\"Must be monthly or yearly\");\r\n        }\r\n        uint key_num = 0; // index 0 proposal 1\r\n        if (providers[msg.sender].numproposal >= 1){ // if greater than 1 proposal\r\n            key_num = providers[msg.sender].numproposal; // index of latest proposal\r\n        }\r\n        providers[msg.sender].numproposal = providers[msg.sender].numproposal + 1; // proposal count begins at 1\r\n        proposals[cname] = Proposal(cname, cost, period, true, true, description, key_num, msg.sender); // registers proposal\r\n        proposals[cname].active = true ; // turns on activity \r\n    }\r\n\r\n    //################\r\n    // NOT USED IN PHASE3\r\n\r\n    // function pay(bytes32 prop_h) public payable onlySubscriber{\r\n    //     if(block.timestamp < info_by_prop[msg.sender][prop_h].next_payday){\r\n    //         revert(\"Payment up to date.\");\r\n    //     }else{ \r\n    //         address payable payable_creator=payable(proposals[prop_h].creator);\r\n    //         payable_creator.transfer(proposals[prop_h].cost);\r\n    //         info_by_prop[msg.sender][prop_h].next_payday= info_by_prop[msg.sender][prop_h].next_payday+ proposals[prop_h].period;\r\n    //     }\r\n    // }\r\n    //##################\r\n\r\n\r\n    // NOT USED IN PHASE 3\r\n    // function collect(address newholder, uint256 amount) public payable onlyProvider{\r\n    //    if(msg.sender.balance<1){\r\n    //         revert(\"Your balance is not large enough to transfer.\");\r\n    //    }else{\r\n    //        transfer(newholder, amount);\r\n    //    }\r\n    // }\r\n    //####################\r\n    function sub_to_plan(bytes32 prop_h) public payable onlySubscriber{\r\n        if(proposals[prop_h].name_taken == false){\r\n            revert(\"there is no subscription of this name\");\r\n        }\r\n        if(proposals[prop_h].active == false){\r\n            revert(\"this subscription is not active\");\r\n        }\r\n        if(info_by_prop[msg.sender][prop_h].in_use == true){\r\n            revert(\"you are already subscribed.\");\r\n        }\r\n        info_by_prop[msg.sender][prop_h]=subPlan(true, block.timestamp, block.timestamp);\r\n        info_by_prop[msg.sender][prop_h].next_payday = block.timestamp;\r\n        info_by_prop[msg.sender][prop_h].in_use = true;\r\n        transfersub(proposals[prop_h].creator, proposals[prop_h].cost, prop_h);// ERC20 transfer()\r\n        sub_ids[proposals[prop_h].creator][proposals[prop_h].key].push(subscribers[msg.sender].addy);\r\n    }\r\n   \r\n    // address 1 = bytes32\"netflix\" with key 0, \"youtube\" w key 1\r\n    // address 2 = bytes32\"netflix\" with key 0, \"hulu\" w key 1  \r\n\r\n    function unsub_to_plan(bytes32 prop_h) public onlySubscriber{\r\n        if(info_by_prop[msg.sender][prop_h].in_use == false){\r\n            revert();\r\n        }else if(sub_ids[proposals[prop_h].creator][proposals[prop_h].key].length==1){\r\n            info_by_prop[msg.sender][prop_h].in_use = false;\r\n            sub_ids[proposals[prop_h].creator][proposals[prop_h].key].pop();\r\n        }else if(sub_ids[proposals[prop_h].creator][proposals[prop_h].key][sub_ids[proposals[prop_h].creator][proposals[prop_h].key].length-1]==msg.sender){\r\n                info_by_prop[msg.sender][prop_h].in_use = false;\r\n                sub_ids[proposals[prop_h].creator][proposals[prop_h].key].pop();\r\n        }else {\r\n        uint index; \r\n        for(uint i=0;i<sub_ids[proposals[prop_h].creator][proposals[prop_h].key].length;i++){\r\n            if(sub_ids[proposals[prop_h].creator][proposals[prop_h].key][i]==msg.sender){\r\n                index=i;\r\n                break;\r\n            }\r\n        }\r\n        for (uint j = index; j<sub_ids[proposals[prop_h].creator][proposals[prop_h].key].length-1; j++){\r\n            sub_ids[proposals[prop_h].creator][proposals[prop_h].key][j] = sub_ids[proposals[prop_h].creator][proposals[prop_h].key][j+1];\r\n        }\r\n        info_by_prop[msg.sender][prop_h].in_use = false;\r\n        sub_ids[proposals[prop_h].creator][proposals[prop_h].key].pop();\r\n        }\r\n    }\r\n\r\n    function findSubscription (bytes32 searchName) public view returns (bytes32,uint, uint,string memory) {\r\n        if (proposals[searchName].active == true){\r\n            return (proposals[searchName].cname,proposals[searchName].cost,proposals[searchName].period, proposals[searchName].description) ;\r\n        }\r\n        else{\r\n            revert(\"Subscription by that name does not exist\") ; \r\n        }\r\n    }\r\n\r\n    function on_off_switch(bytes32 prop_h) public onlyProvider{\r\n        if(msg.sender!=proposals[prop_h].creator){\r\n            revert();\r\n        }else if(msg.sender==proposals[prop_h].creator){\r\n            proposals[prop_h].active=!proposals[prop_h].active;\r\n        }\r\n    }\r\n\r\n    function view_subs(bytes32 prop_h) onlyProvider public view returns (address[] memory) {\r\n        if(msg.sender!=proposals[prop_h].creator){\r\n            revert(\"You do not own this subscription.\");\r\n        }\r\n        return sub_ids[proposals[prop_h].creator][proposals[prop_h].key];\r\n        \r\n    }\r\n\r\n    //###################\r\n    function accessSubscription(bytes32 prop_h) public payable onlySubscriber returns(bool){\r\n        if(info_by_prop[msg.sender][prop_h].in_use == false){\r\n            return false;\r\n        }\r\n        if (block.timestamp < info_by_prop[msg.sender][prop_h].next_payday){\r\n            return true;\r\n        }\r\n        if(block.timestamp >= info_by_prop[msg.sender][prop_h].next_payday){\r\n            while(block.timestamp > info_by_prop[msg.sender][prop_h].next_payday){\r\n                transfersub(proposals[prop_h].creator, proposals[prop_h].cost, prop_h);\r\n            }\r\n            return true;\r\n        }\r\n        else{\r\n            return false;\r\n        }   \r\n    }\r\n    \r\n}",
  "sourcePath": "C:\\Users\\hchou\\Desktop\\V4Cryptofans-Dapp\\Cryptofans-Dapp-V4\\Cryptofans-Dapp\\cryptofans-contract\\contracts\\Cryptofans.sol",
  "compiler": {
    "name": "solc",
    "version": "0.6.0+commit.26b70077.Emscripten.clang"
  },
  "schemaVersion": "3.0.23",
  "updatedAt": "2022-05-09T02:31:16.975Z",
  "networkType": "ethereum",
  "devdoc": {
    "methods": {}
  },
  "userdoc": {
    "methods": {
      "registerasSubscriber()": {
        "notice": "///CRYPTOFANS MARKETPLACE FUNCTIONS//////"
      }
    }
  }
}